{
  "_format": "hh-sol-artifact-1",
  "contractName": "CityNameNFT",
  "sourceName": "contracts/CityNameNFT.sol",
  "abi": [
    {
      "inputs": [],
      "stateMutability": "nonpayable",
      "type": "constructor"
    },
    {
      "anonymous": false,
      "inputs": [
        {
          "indexed": true,
          "internalType": "address",
          "name": "owner",
          "type": "address"
        },
        {
          "indexed": true,
          "internalType": "address",
          "name": "approved",
          "type": "address"
        },
        {
          "indexed": true,
          "internalType": "uint256",
          "name": "tokenId",
          "type": "uint256"
        }
      ],
      "name": "Approval",
      "type": "event"
    },
    {
      "anonymous": false,
      "inputs": [
        {
          "indexed": true,
          "internalType": "address",
          "name": "owner",
          "type": "address"
        },
        {
          "indexed": true,
          "internalType": "address",
          "name": "operator",
          "type": "address"
        },
        {
          "indexed": false,
          "internalType": "bool",
          "name": "approved",
          "type": "bool"
        }
      ],
      "name": "ApprovalForAll",
      "type": "event"
    },
    {
      "anonymous": false,
      "inputs": [
        {
          "indexed": false,
          "internalType": "address",
          "name": "sender",
          "type": "address"
        },
        {
          "indexed": false,
          "internalType": "uint256",
          "name": "tokenId",
          "type": "uint256"
        }
      ],
      "name": "NewCityNameNFTMinted",
      "type": "event"
    },
    {
      "anonymous": false,
      "inputs": [
        {
          "indexed": true,
          "internalType": "address",
          "name": "from",
          "type": "address"
        },
        {
          "indexed": true,
          "internalType": "address",
          "name": "to",
          "type": "address"
        },
        {
          "indexed": true,
          "internalType": "uint256",
          "name": "tokenId",
          "type": "uint256"
        }
      ],
      "name": "Transfer",
      "type": "event"
    },
    {
      "inputs": [
        {
          "internalType": "address",
          "name": "to",
          "type": "address"
        },
        {
          "internalType": "uint256",
          "name": "tokenId",
          "type": "uint256"
        }
      ],
      "name": "approve",
      "outputs": [],
      "stateMutability": "nonpayable",
      "type": "function"
    },
    {
      "inputs": [
        {
          "internalType": "address",
          "name": "owner",
          "type": "address"
        }
      ],
      "name": "balanceOf",
      "outputs": [
        {
          "internalType": "uint256",
          "name": "",
          "type": "uint256"
        }
      ],
      "stateMutability": "view",
      "type": "function"
    },
    {
      "inputs": [
        {
          "internalType": "uint256",
          "name": "tokenId",
          "type": "uint256"
        }
      ],
      "name": "getApproved",
      "outputs": [
        {
          "internalType": "address",
          "name": "",
          "type": "address"
        }
      ],
      "stateMutability": "view",
      "type": "function"
    },
    {
      "inputs": [],
      "name": "getMerkleTreeLeaves",
      "outputs": [
        {
          "internalType": "bytes32[]",
          "name": "",
          "type": "bytes32[]"
        }
      ],
      "stateMutability": "view",
      "type": "function"
    },
    {
      "inputs": [
        {
          "internalType": "address",
          "name": "owner",
          "type": "address"
        },
        {
          "internalType": "address",
          "name": "operator",
          "type": "address"
        }
      ],
      "name": "isApprovedForAll",
      "outputs": [
        {
          "internalType": "bool",
          "name": "",
          "type": "bool"
        }
      ],
      "stateMutability": "view",
      "type": "function"
    },
    {
      "inputs": [
        {
          "internalType": "address",
          "name": "personAddress",
          "type": "address"
        }
      ],
      "name": "makeACityNFT",
      "outputs": [],
      "stateMutability": "nonpayable",
      "type": "function"
    },
    {
      "inputs": [],
      "name": "merkleTreeAddress",
      "outputs": [
        {
          "internalType": "contract MerkleTree",
          "name": "",
          "type": "address"
        }
      ],
      "stateMutability": "view",
      "type": "function"
    },
    {
      "inputs": [],
      "name": "name",
      "outputs": [
        {
          "internalType": "string",
          "name": "",
          "type": "string"
        }
      ],
      "stateMutability": "view",
      "type": "function"
    },
    {
      "inputs": [
        {
          "internalType": "uint256",
          "name": "tokenId",
          "type": "uint256"
        }
      ],
      "name": "ownerOf",
      "outputs": [
        {
          "internalType": "address",
          "name": "",
          "type": "address"
        }
      ],
      "stateMutability": "view",
      "type": "function"
    },
    {
      "inputs": [
        {
          "internalType": "uint256",
          "name": "tokenId",
          "type": "uint256"
        }
      ],
      "name": "pickRandomCity",
      "outputs": [
        {
          "internalType": "string",
          "name": "",
          "type": "string"
        }
      ],
      "stateMutability": "view",
      "type": "function"
    },
    {
      "inputs": [
        {
          "internalType": "address",
          "name": "from",
          "type": "address"
        },
        {
          "internalType": "address",
          "name": "to",
          "type": "address"
        },
        {
          "internalType": "uint256",
          "name": "tokenId",
          "type": "uint256"
        }
      ],
      "name": "safeTransferFrom",
      "outputs": [],
      "stateMutability": "nonpayable",
      "type": "function"
    },
    {
      "inputs": [
        {
          "internalType": "address",
          "name": "from",
          "type": "address"
        },
        {
          "internalType": "address",
          "name": "to",
          "type": "address"
        },
        {
          "internalType": "uint256",
          "name": "tokenId",
          "type": "uint256"
        },
        {
          "internalType": "bytes",
          "name": "_data",
          "type": "bytes"
        }
      ],
      "name": "safeTransferFrom",
      "outputs": [],
      "stateMutability": "nonpayable",
      "type": "function"
    },
    {
      "inputs": [
        {
          "internalType": "address",
          "name": "operator",
          "type": "address"
        },
        {
          "internalType": "bool",
          "name": "approved",
          "type": "bool"
        }
      ],
      "name": "setApprovalForAll",
      "outputs": [],
      "stateMutability": "nonpayable",
      "type": "function"
    },
    {
      "inputs": [
        {
          "internalType": "bytes4",
          "name": "interfaceId",
          "type": "bytes4"
        }
      ],
      "name": "supportsInterface",
      "outputs": [
        {
          "internalType": "bool",
          "name": "",
          "type": "bool"
        }
      ],
      "stateMutability": "view",
      "type": "function"
    },
    {
      "inputs": [],
      "name": "symbol",
      "outputs": [
        {
          "internalType": "string",
          "name": "",
          "type": "string"
        }
      ],
      "stateMutability": "view",
      "type": "function"
    },
    {
      "inputs": [
        {
          "internalType": "uint256",
          "name": "tokenId",
          "type": "uint256"
        }
      ],
      "name": "tokenURI",
      "outputs": [
        {
          "internalType": "string",
          "name": "",
          "type": "string"
        }
      ],
      "stateMutability": "view",
      "type": "function"
    },
    {
      "inputs": [
        {
          "internalType": "address",
          "name": "from",
          "type": "address"
        },
        {
          "internalType": "address",
          "name": "to",
          "type": "address"
        },
        {
          "internalType": "uint256",
          "name": "tokenId",
          "type": "uint256"
        }
      ],
      "name": "transferFrom",
      "outputs": [],
      "stateMutability": "nonpayable",
      "type": "function"
    }
  ],
  "bytecode": "0x60806040526040518061020001604052806101cb8152602001620053546101cb913960089080519060200190620000389291906200044a565b506040518060400160405280600d81526020017f3c2f746578743e3c2f7376673e0000000000000000000000000000000000000081525060099080519060200190620000869291906200044a565b506040518060c001604052806040518060400160405280600681526020017f486176616e61000000000000000000000000000000000000000000000000000081525081526020016040518060400160405280600881526020017f4e657720596f726b00000000000000000000000000000000000000000000000081525081526020016040518060400160405280600581526020017f546f6b796f00000000000000000000000000000000000000000000000000000081525081526020016040518060400160405280600581526020017f44656c686900000000000000000000000000000000000000000000000000000081525081526020016040518060400160405280600581526020017f506172697300000000000000000000000000000000000000000000000000000081525081526020016040518060400160405280600681526020017f4d61647269640000000000000000000000000000000000000000000000000000815250815250600a90600662000204929190620004db565b503480156200021257600080fd5b506040518060400160405280600781526020017f436974794e4654000000000000000000000000000000000000000000000000008152506040518060400160405280600481526020017f43495459000000000000000000000000000000000000000000000000000000008152508160009080519060200190620002979291906200044a565b508060019080519060200190620002b09291906200044a565b505050620002fe6040518060400160405280601181526020017f43697479204e465420636f6e74726163740000000000000000000000000000008152506200037e60201b6200106d1760201c565b60086040516200030e9062000542565b6200031a91906200062f565b604051809103906000f08015801562000337573d6000803e3d6000fd5b50600b60006101000a81548173ffffffffffffffffffffffffffffffffffffffff021916908373ffffffffffffffffffffffffffffffffffffffff16021790555062000756565b6200041e816040516024016200039591906200064c565b6040516020818303038152906040527f41304fac000000000000000000000000000000000000000000000000000000007bffffffffffffffffffffffffffffffffffffffffffffffffffffffff19166020820180517bffffffffffffffffffffffffffffffffffffffffffffffffffffffff83818316178352505050506200042160201b60201c565b50565b60008151905060006a636f6e736f6c652e6c6f679050602083016000808483855afa5050505050565b8280546200045890620006e0565b90600052602060002090601f0160209004810192826200047c5760008555620004c8565b82601f106200049757805160ff1916838001178555620004c8565b82800160010185558215620004c8579182015b82811115620004c7578251825591602001919060010190620004aa565b5b509050620004d7919062000550565b5090565b8280548282559060005260206000209081019282156200052f579160200282015b828111156200052e5782518290805190602001906200051d9291906200044a565b5091602001919060010190620004fc565b5b5090506200053e91906200056f565b5090565b610f24806200443083390190565b5b808211156200056b57600081600090555060010162000551565b5090565b5b8082111562000593576000818162000589919062000597565b5060010162000570565b5090565b508054620005a590620006e0565b6000825580601f10620005b95750620005da565b601f016020900490600052602060002090810190620005d9919062000550565b5b50565b620005e88162000696565b82525050565b6000620005fb8262000670565b6200060781856200067b565b935062000619818560208601620006aa565b620006248162000745565b840191505092915050565b6000602082019050620006466000830184620005dd565b92915050565b60006020820190508181036000830152620006688184620005ee565b905092915050565b600081519050919050565b600082825260208201905092915050565b6000819050919050565b6000620006a3826200068c565b9050919050565b60005b83811015620006ca578082015181840152602081019050620006ad565b83811115620006da576000848401525b50505050565b60006002820490506001821680620006f957607f821691505b6020821081141562000710576200070f62000716565b5b50919050565b7f4e487b7100000000000000000000000000000000000000000000000000000000600052602260045260246000fd5b6000601f19601f8301169050919050565b613cca80620007666000396000f3fe608060405234801561001057600080fd5b506004361061010b5760003560e01c806370a08231116100a2578063b88d4fde11610071578063b88d4fde146102ca578063c87b56dd146102e6578063c8d1a30414610316578063cd0d20f514610332578063e985e9c5146103505761010b565b806370a082311461023057806395d89b4114610260578063a22cb4651461027e578063ae8f6c8b1461029a5761010b565b806323b872dd116100de57806323b872dd146101aa57806342842e0e146101c65780636352211e146101e25780636686d357146102125761010b565b806301ffc9a71461011057806306fdde0314610140578063081812fc1461015e578063095ea7b31461018e575b600080fd5b61012a60048036038101906101259190612551565b610380565b6040516101379190612d9a565b60405180910390f35b610148610462565b6040516101559190612dd0565b60405180910390f35b610178600480360381019061017391906125a3565b6104f4565b6040516101859190612ce8565b60405180910390f35b6101a860048036038101906101a391906124d4565b610579565b005b6101c460048036038101906101bf91906123ce565b610691565b005b6101e060048036038101906101db91906123ce565b6106f1565b005b6101fc60048036038101906101f791906125a3565b610711565b6040516102099190612ce8565b60405180910390f35b61021a6107c3565b6040516102279190612d78565b60405180910390f35b61024a60048036038101906102459190612369565b61086f565b6040516102579190613030565b60405180910390f35b610268610927565b6040516102759190612dd0565b60405180910390f35b61029860048036038101906102939190612498565b6109b9565b005b6102b460048036038101906102af91906125a3565b6109cf565b6040516102c19190612dd0565b60405180910390f35b6102e460048036038101906102df919061241d565b610aed565b005b61030060048036038101906102fb91906125a3565b610b4f565b60405161030d9190612dd0565b60405180910390f35b610330600480360381019061032b9190612369565b610ca1565b005b61033a610fb3565b6040516103479190612db5565b60405180910390f35b61036a60048036038101906103659190612392565b610fd9565b6040516103779190612d9a565b60405180910390f35b60007f80ac58cd000000000000000000000000000000000000000000000000000000007bffffffffffffffffffffffffffffffffffffffffffffffffffffffff1916827bffffffffffffffffffffffffffffffffffffffffffffffffffffffff1916148061044b57507f5b5e139f000000000000000000000000000000000000000000000000000000007bffffffffffffffffffffffffffffffffffffffffffffffffffffffff1916827bffffffffffffffffffffffffffffffffffffffffffffffffffffffff1916145b8061045b575061045a82611106565b5b9050919050565b60606000805461047190613357565b80601f016020809104026020016040519081016040528092919081815260200182805461049d90613357565b80156104ea5780601f106104bf576101008083540402835291602001916104ea565b820191906000526020600020905b8154815290600101906020018083116104cd57829003601f168201915b5050505050905090565b60006104ff82611170565b61053e576040517f08c379a000000000000000000000000000000000000000000000000000000000815260040161053590612fb0565b60405180910390fd5b6004600083815260200190815260200160002060009054906101000a900473ffffffffffffffffffffffffffffffffffffffff169050919050565b600061058482610711565b90508073ffffffffffffffffffffffffffffffffffffffff168373ffffffffffffffffffffffffffffffffffffffff1614156105f5576040517f08c379a00000000000000000000000000000000000000000000000000000000081526004016105ec90612ff0565b60405180910390fd5b8073ffffffffffffffffffffffffffffffffffffffff166106146111dc565b73ffffffffffffffffffffffffffffffffffffffff16148061064357506106428161063d6111dc565b610fd9565b5b610682576040517f08c379a000000000000000000000000000000000000000000000000000000000815260040161067990612ef0565b60405180910390fd5b61068c83836111e4565b505050565b6106a261069c6111dc565b8261129d565b6106e1576040517f08c379a00000000000000000000000000000000000000000000000000000000081526004016106d890613010565b60405180910390fd5b6106ec83838361137b565b505050565b61070c83838360405180602001604052806000815250610aed565b505050565b6000806002600084815260200190815260200160002060009054906101000a900473ffffffffffffffffffffffffffffffffffffffff169050600073ffffffffffffffffffffffffffffffffffffffff168173ffffffffffffffffffffffffffffffffffffffff1614156107ba576040517f08c379a00000000000000000000000000000000000000000000000000000000081526004016107b190612f30565b60405180910390fd5b80915050919050565b6060600b60009054906101000a900473ffffffffffffffffffffffffffffffffffffffff1673ffffffffffffffffffffffffffffffffffffffff1663ad2b30376040518163ffffffff1660e01b815260040160006040518083038186803b15801561082d57600080fd5b505afa158015610841573d6000803e3d6000fd5b505050506040513d6000823e3d601f19601f8201168201806040525081019061086a9190612510565b905090565b60008073ffffffffffffffffffffffffffffffffffffffff168273ffffffffffffffffffffffffffffffffffffffff1614156108e0576040517f08c379a00000000000000000000000000000000000000000000000000000000081526004016108d790612f10565b60405180910390fd5b600360008373ffffffffffffffffffffffffffffffffffffffff1673ffffffffffffffffffffffffffffffffffffffff168152602001908152602001600020549050919050565b60606001805461093690613357565b80601f016020809104026020016040519081016040528092919081815260200182805461096290613357565b80156109af5780601f10610984576101008083540402835291602001916109af565b820191906000526020600020905b81548152906001019060200180831161099257829003601f168201915b5050505050905090565b6109cb6109c46111dc565b83836115e2565b5050565b60606000610a036109df8461174f565b6040516020016109ef9190612c5f565b6040516020818303038152906040526118fc565b9050600a8054905081610a169190613427565b9050600a8181548110610a52577f4e487b7100000000000000000000000000000000000000000000000000000000600052603260045260246000fd5b906000526020600020018054610a6790613357565b80601f0160208091040260200160405190810160405280929190818152602001828054610a9390613357565b8015610ae05780601f10610ab557610100808354040283529160200191610ae0565b820191906000526020600020905b815481529060010190602001808311610ac357829003601f168201915b5050505050915050919050565b610afe610af86111dc565b8361129d565b610b3d576040517f08c379a0000000000000000000000000000000000000000000000000000000008152600401610b3490613010565b60405180910390fd5b610b498484848461192f565b50505050565b6060610b5a82611170565b610b99576040517f08c379a0000000000000000000000000000000000000000000000000000000008152600401610b9090612f90565b60405180910390fd5b6000600660008481526020019081526020016000208054610bb990613357565b80601f0160208091040260200160405190810160405280929190818152602001828054610be590613357565b8015610c325780601f10610c0757610100808354040283529160200191610c32565b820191906000526020600020905b815481529060010190602001808311610c1557829003601f168201915b505050505090506000610c4361198b565b9050600081511415610c59578192505050610c9c565b600082511115610c8e578082604051602001610c76929190612b6b565b60405160208183030381529060405292505050610c9c565b610c97846119a2565b925050505b919050565b6000610cad6007611a49565b90506000610cba826109cf565b905060006008826009604051602001610cd593929190612b8f565b6040516020818303038152906040529050610d246040518060400160405280601581526020017f0a2d2d2d2d2d2d2d2d2d2d2d2d2d2d2d2d2d2d2d2d000000000000000000000081525061106d565b610d2d8161106d565b610d6b6040518060400160405280601581526020017f2d2d2d2d2d2d2d2d2d2d2d2d2d2d2d2d2d2d2d2d0a000000000000000000000081525061106d565b6000610d9f83610d7a84611a57565b604051602001610d8b929190612c81565b604051602081830303815290604052611a57565b9050600081604051602001610db49190612cc6565b6040516020818303038152906040529050610e036040518060400160405280601581526020017f0a2d2d2d2d2d2d2d2d2d2d2d2d2d2d2d2d2d2d2d2d000000000000000000000081525061106d565b610e2b81604051602001610e179190612bc0565b60405160208183030381529060405261106d565b610e696040518060400160405280601581526020017f2d2d2d2d2d2d2d2d2d2d2d2d2d2d2d2d2d2d2d2d0a000000000000000000000081525061106d565b610e738686611be1565b610e7d8582611bff565b6000610eb53388610e8d8961174f565b85604051602001610ea19493929190612be2565b604051602081830303815290604052611a57565b9050600b60009054906101000a900473ffffffffffffffffffffffffffffffffffffffff1673ffffffffffffffffffffffffffffffffffffffff1663d4a2498d826040518263ffffffff1660e01b8152600401610f129190612dd0565b600060405180830381600087803b158015610f2c57600080fd5b505af1158015610f40573d6000803e3d6000fd5b50505050610f4e6007611c73565b610f71604051806060016040528060258152602001613c30602591398789611c89565b7fe5b39de1a5a90c7ff6a5d3d2d7d5d2ea8afd1ffdf539826d95cd3e5590c339653387604051610fa2929190612d4f565b60405180910390a150505050505050565b600b60009054906101000a900473ffffffffffffffffffffffffffffffffffffffff1681565b6000600560008473ffffffffffffffffffffffffffffffffffffffff1673ffffffffffffffffffffffffffffffffffffffff16815260200190815260200160002060008373ffffffffffffffffffffffffffffffffffffffff1673ffffffffffffffffffffffffffffffffffffffff16815260200190815260200160002060009054906101000a900460ff16905092915050565b611103816040516024016110819190612dd0565b6040516020818303038152906040527f41304fac000000000000000000000000000000000000000000000000000000007bffffffffffffffffffffffffffffffffffffffffffffffffffffffff19166020820180517bffffffffffffffffffffffffffffffffffffffffffffffffffffffff8381831617835250505050611d28565b50565b60007f01ffc9a7000000000000000000000000000000000000000000000000000000007bffffffffffffffffffffffffffffffffffffffffffffffffffffffff1916827bffffffffffffffffffffffffffffffffffffffffffffffffffffffff1916149050919050565b60008073ffffffffffffffffffffffffffffffffffffffff166002600084815260200190815260200160002060009054906101000a900473ffffffffffffffffffffffffffffffffffffffff1673ffffffffffffffffffffffffffffffffffffffff1614159050919050565b600033905090565b816004600083815260200190815260200160002060006101000a81548173ffffffffffffffffffffffffffffffffffffffff021916908373ffffffffffffffffffffffffffffffffffffffff160217905550808273ffffffffffffffffffffffffffffffffffffffff1661125783610711565b73ffffffffffffffffffffffffffffffffffffffff167f8c5be1e5ebec7d5bd14f71427d1e84f3dd0314c0f7b2291e5b200ac8c7c3b92560405160405180910390a45050565b60006112a882611170565b6112e7576040517f08c379a00000000000000000000000000000000000000000000000000000000081526004016112de90612ed0565b60405180910390fd5b60006112f283610711565b90508073ffffffffffffffffffffffffffffffffffffffff168473ffffffffffffffffffffffffffffffffffffffff16148061136157508373ffffffffffffffffffffffffffffffffffffffff16611349846104f4565b73ffffffffffffffffffffffffffffffffffffffff16145b8061137257506113718185610fd9565b5b91505092915050565b8273ffffffffffffffffffffffffffffffffffffffff1661139b82610711565b73ffffffffffffffffffffffffffffffffffffffff16146113f1576040517f08c379a00000000000000000000000000000000000000000000000000000000081526004016113e890612e50565b60405180910390fd5b600073ffffffffffffffffffffffffffffffffffffffff168273ffffffffffffffffffffffffffffffffffffffff161415611461576040517f08c379a000000000000000000000000000000000000000000000000000000000815260040161145890612e90565b60405180910390fd5b61146c838383611d51565b6114776000826111e4565b6001600360008573ffffffffffffffffffffffffffffffffffffffff1673ffffffffffffffffffffffffffffffffffffffff16815260200190815260200160002060008282546114c7919061323f565b925050819055506001600360008473ffffffffffffffffffffffffffffffffffffffff1673ffffffffffffffffffffffffffffffffffffffff168152602001908152602001600020600082825461151e919061315e565b92505081905550816002600083815260200190815260200160002060006101000a81548173ffffffffffffffffffffffffffffffffffffffff021916908373ffffffffffffffffffffffffffffffffffffffff160217905550808273ffffffffffffffffffffffffffffffffffffffff168473ffffffffffffffffffffffffffffffffffffffff167fddf252ad1be2c89b69c2b068fc378daa952ba7f163c4a11628f55a4df523b3ef60405160405180910390a46115dd838383611d56565b505050565b8173ffffffffffffffffffffffffffffffffffffffff168373ffffffffffffffffffffffffffffffffffffffff161415611651576040517f08c379a000000000000000000000000000000000000000000000000000000000815260040161164890612eb0565b60405180910390fd5b80600560008573ffffffffffffffffffffffffffffffffffffffff1673ffffffffffffffffffffffffffffffffffffffff16815260200190815260200160002060008473ffffffffffffffffffffffffffffffffffffffff1673ffffffffffffffffffffffffffffffffffffffff16815260200190815260200160002060006101000a81548160ff0219169083151502179055508173ffffffffffffffffffffffffffffffffffffffff168373ffffffffffffffffffffffffffffffffffffffff167f17307eab39ab6107e8899845ad3d59bd9653f200f220920489ca2b5937696c31836040516117429190612d9a565b60405180910390a3505050565b60606000821415611797576040518060400160405280600181526020017f300000000000000000000000000000000000000000000000000000000000000081525090506118f7565b600082905060005b600082146117c95780806117b2906133ba565b915050600a826117c291906131b4565b915061179f565b60008167ffffffffffffffff81111561180b577f4e487b7100000000000000000000000000000000000000000000000000000000600052604160045260246000fd5b6040519080825280601f01601f19166020018201604052801561183d5781602001600182028036833780820191505090505b5090505b600085146118f057600182611856919061323f565b9150600a856118659190613427565b6030611871919061315e565b60f81b8183815181106118ad577f4e487b7100000000000000000000000000000000000000000000000000000000600052603260045260246000fd5b60200101907effffffffffffffffffffffffffffffffffffffffffffffffffffffffffffff1916908160001a905350600a856118e991906131b4565b9450611841565b8093505050505b919050565b60008160405160200161190f9190612b54565b6040516020818303038152906040528051906020012060001c9050919050565b61193a84848461137b565b61194684848484611d5b565b611985576040517f08c379a000000000000000000000000000000000000000000000000000000000815260040161197c90612e30565b60405180910390fd5b50505050565b606060405180602001604052806000815250905090565b60606119ad82611170565b6119ec576040517f08c379a00000000000000000000000000000000000000000000000000000000081526004016119e390612fd0565b60405180910390fd5b60006119f661198b565b90506000815111611a165760405180602001604052806000815250611a41565b80611a208461174f565b604051602001611a31929190612b6b565b6040516020818303038152906040525b915050919050565b600081600001549050919050565b6060600082511415611a7a57604051806020016040528060008152509050611bdc565b6000604051806060016040528060408152602001613c556040913990506000600360028551611aa9919061315e565b611ab391906131b4565b6004611abf91906131e5565b67ffffffffffffffff811115611afe577f4e487b7100000000000000000000000000000000000000000000000000000000600052604160045260246000fd5b6040519080825280601f01601f191660200182016040528015611b305781602001600182028036833780820191505090505b509050600182016020820185865187015b80821015611b9c576003820191508151603f8160121c168501518453600184019350603f81600c1c168501518453600184019350603f8160061c168501518453600184019350603f8116850151845360018401935050611b41565b5050600386510660018114611bb85760028114611bcb57611bd3565b603d6001830353603d6002830353611bd3565b603d60018303535b50505080925050505b919050565b611bfb828260405180602001604052806000815250611ef2565b5050565b611c0882611170565b611c47576040517f08c379a0000000000000000000000000000000000000000000000000000000008152600401611c3e90612f50565b60405180910390fd5b80600660008481526020019081526020016000209080519060200190611c6e92919061214a565b505050565b6001816000016000828254019250508190555050565b611d23838383604051602401611ca193929190612df2565b6040516020818303038152906040527fe3849f79000000000000000000000000000000000000000000000000000000007bffffffffffffffffffffffffffffffffffffffffffffffffffffffff19166020820180517bffffffffffffffffffffffffffffffffffffffffffffffffffffffff8381831617835250505050611d28565b505050565b60008151905060006a636f6e736f6c652e6c6f679050602083016000808483855afa5050505050565b505050565b505050565b6000611d7c8473ffffffffffffffffffffffffffffffffffffffff16611f4d565b15611ee5578373ffffffffffffffffffffffffffffffffffffffff1663150b7a02611da56111dc565b8786866040518563ffffffff1660e01b8152600401611dc79493929190612d03565b602060405180830381600087803b158015611de157600080fd5b505af1925050508015611e1257506040513d601f19601f82011682018060405250810190611e0f919061257a565b60015b611e95573d8060008114611e42576040519150601f19603f3d011682016040523d82523d6000602084013e611e47565b606091505b50600081511415611e8d576040517f08c379a0000000000000000000000000000000000000000000000000000000008152600401611e8490612e30565b60405180910390fd5b805181602001fd5b63150b7a0260e01b7bffffffffffffffffffffffffffffffffffffffffffffffffffffffff1916817bffffffffffffffffffffffffffffffffffffffffffffffffffffffff191614915050611eea565b600190505b949350505050565b611efc8383611f70565b611f096000848484611d5b565b611f48576040517f08c379a0000000000000000000000000000000000000000000000000000000008152600401611f3f90612e30565b60405180910390fd5b505050565b6000808273ffffffffffffffffffffffffffffffffffffffff163b119050919050565b600073ffffffffffffffffffffffffffffffffffffffff168273ffffffffffffffffffffffffffffffffffffffff161415611fe0576040517f08c379a0000000000000000000000000000000000000000000000000000000008152600401611fd790612f70565b60405180910390fd5b611fe981611170565b15612029576040517f08c379a000000000000000000000000000000000000000000000000000000000815260040161202090612e70565b60405180910390fd5b61203560008383611d51565b6001600360008473ffffffffffffffffffffffffffffffffffffffff1673ffffffffffffffffffffffffffffffffffffffff1681526020019081526020016000206000828254612085919061315e565b92505081905550816002600083815260200190815260200160002060006101000a81548173ffffffffffffffffffffffffffffffffffffffff021916908373ffffffffffffffffffffffffffffffffffffffff160217905550808273ffffffffffffffffffffffffffffffffffffffff16600073ffffffffffffffffffffffffffffffffffffffff167fddf252ad1be2c89b69c2b068fc378daa952ba7f163c4a11628f55a4df523b3ef60405160405180910390a461214660008383611d56565b5050565b82805461215690613357565b90600052602060002090601f01602090048101928261217857600085556121bf565b82601f1061219157805160ff19168380011785556121bf565b828001600101855582156121bf579182015b828111156121be5782518255916020019190600101906121a3565b5b5090506121cc91906121d0565b5090565b5b808211156121e95760008160009055506001016121d1565b5090565b60006122006121fb84613070565b61304b565b9050808382526020820190508285602086028201111561221f57600080fd5b60005b8581101561224f578161223588826122eb565b845260208401935060208301925050600181019050612222565b5050509392505050565b600061226c6122678461309c565b61304b565b90508281526020810184848401111561228457600080fd5b61228f848285613315565b509392505050565b6000813590506122a681613bbc565b92915050565b600082601f8301126122bd57600080fd5b81516122cd8482602086016121ed565b91505092915050565b6000813590506122e581613bd3565b92915050565b6000815190506122fa81613bea565b92915050565b60008135905061230f81613c01565b92915050565b60008151905061232481613c01565b92915050565b600082601f83011261233b57600080fd5b813561234b848260208601612259565b91505092915050565b60008135905061236381613c18565b92915050565b60006020828403121561237b57600080fd5b600061238984828501612297565b91505092915050565b600080604083850312156123a557600080fd5b60006123b385828601612297565b92505060206123c485828601612297565b9150509250929050565b6000806000606084860312156123e357600080fd5b60006123f186828701612297565b935050602061240286828701612297565b925050604061241386828701612354565b9150509250925092565b6000806000806080858703121561243357600080fd5b600061244187828801612297565b945050602061245287828801612297565b935050604061246387828801612354565b925050606085013567ffffffffffffffff81111561248057600080fd5b61248c8782880161232a565b91505092959194509250565b600080604083850312156124ab57600080fd5b60006124b985828601612297565b92505060206124ca858286016122d6565b9150509250929050565b600080604083850312156124e757600080fd5b60006124f585828601612297565b925050602061250685828601612354565b9150509250929050565b60006020828403121561252257600080fd5b600082015167ffffffffffffffff81111561253c57600080fd5b612548848285016122ac565b91505092915050565b60006020828403121561256357600080fd5b600061257184828501612300565b91505092915050565b60006020828403121561258c57600080fd5b600061259a84828501612315565b91505092915050565b6000602082840312156125b557600080fd5b60006125c384828501612354565b91505092915050565b60006125d88383612677565b60208301905092915050565b6125ed81613273565b82525050565b6126046125ff82613273565b613403565b82525050565b6000612615826130f2565b61261f8185613120565b935061262a836130cd565b8060005b8381101561265b57815161264288826125cc565b975061264d83613113565b92505060018101905061262e565b5085935050505092915050565b61267181613285565b82525050565b61268081613291565b82525050565b6000612691826130fd565b61269b8185613131565b93506126ab818560208601613324565b6126b481613514565b840191505092915050565b6126c8816132f1565b82525050565b60006126d982613108565b6126e38185613142565b93506126f3818560208601613324565b6126fc81613514565b840191505092915050565b600061271282613108565b61271c8185613153565b935061272c818560208601613324565b80840191505092915050565b6000815461274581613357565b61274f8186613153565b9450600182166000811461276a576001811461277b576127ae565b60ff198316865281860193506127ae565b612784856130dd565b60005b838110156127a657815481890152600182019150602081019050612787565b838801955050505b50505092915050565b60006127c4602583613153565b91506127cf82613532565b602582019050919050565b60006127e7605583613153565b91506127f282613581565b605582019050919050565b600061280a603283613142565b9150612815826135f6565b604082019050919050565b600061282d601083613153565b915061283882613645565b601082019050919050565b6000612850602583613142565b915061285b8261366e565b604082019050919050565b6000612873601c83613142565b915061287e826136bd565b602082019050919050565b6000612896600c83613153565b91506128a1826136e6565b600c82019050919050565b60006128b9602483613142565b91506128c48261370f565b604082019050919050565b60006128dc601983613142565b91506128e78261375e565b602082019050919050565b60006128ff602c83613142565b915061290a82613787565b604082019050919050565b6000612922603883613142565b915061292d826137d6565b604082019050919050565b6000612945602a83613142565b915061295082613825565b604082019050919050565b6000612968602983613142565b915061297382613874565b604082019050919050565b600061298b602e83613142565b9150612996826138c3565b604082019050919050565b60006129ae600283613153565b91506129b982613912565b600282019050919050565b60006129d1602083613142565b91506129dc8261393b565b602082019050919050565b60006129f4603183613142565b91506129ff82613964565b604082019050919050565b6000612a17602c83613142565b9150612a22826139b3565b604082019050919050565b6000612a3a600483613153565b9150612a4582613a02565b600482019050919050565b6000612a5d602f83613142565b9150612a6882613a2b565b604082019050919050565b6000612a80600a83613153565b9150612a8b82613a7a565b600a82019050919050565b6000612aa3602183613142565b9150612aae82613aa3565b604082019050919050565b6000612ac6600f83613153565b9150612ad182613af2565b600f82019050919050565b6000612ae9601d83613153565b9150612af482613b1b565b601d82019050919050565b6000612b0c603183613142565b9150612b1782613b44565b604082019050919050565b6000612b2f601883613153565b9150612b3a82613b93565b601882019050919050565b612b4e816132e7565b82525050565b6000612b608284612707565b915081905092915050565b6000612b778285612707565b9150612b838284612707565b91508190509392505050565b6000612b9b8286612738565b9150612ba78285612707565b9150612bb38284612738565b9150819050949350505050565b6000612bcb826127b7565b9150612bd78284612707565b915081905092915050565b6000612bed82612889565b9150612bf982876125f3565b601482019150612c0882612b22565b9150612c1482866125f3565b601482019150612c2382612ab9565b9150612c2f8285612707565b9150612c3a82612820565b9150612c468284612707565b9150612c51826129a1565b915081905095945050505050565b6000612c6a82612a2d565b9150612c768284612707565b915081905092915050565b6000612c8c82612a73565b9150612c988285612707565b9150612ca3826127da565b9150612caf8284612707565b9150612cba826129a1565b91508190509392505050565b6000612cd182612adc565b9150612cdd8284612707565b915081905092915050565b6000602082019050612cfd60008301846125e4565b92915050565b6000608082019050612d1860008301876125e4565b612d2560208301866125e4565b612d326040830185612b45565b8181036060830152612d448184612686565b905095945050505050565b6000604082019050612d6460008301856125e4565b612d716020830184612b45565b9392505050565b60006020820190508181036000830152612d92818461260a565b905092915050565b6000602082019050612daf6000830184612668565b92915050565b6000602082019050612dca60008301846126bf565b92915050565b60006020820190508181036000830152612dea81846126ce565b905092915050565b60006060820190508181036000830152612e0c81866126ce565b9050612e1b6020830185612b45565b612e2860408301846125e4565b949350505050565b60006020820190508181036000830152612e49816127fd565b9050919050565b60006020820190508181036000830152612e6981612843565b9050919050565b60006020820190508181036000830152612e8981612866565b9050919050565b60006020820190508181036000830152612ea9816128ac565b9050919050565b60006020820190508181036000830152612ec9816128cf565b9050919050565b60006020820190508181036000830152612ee9816128f2565b9050919050565b60006020820190508181036000830152612f0981612915565b9050919050565b60006020820190508181036000830152612f2981612938565b9050919050565b60006020820190508181036000830152612f498161295b565b9050919050565b60006020820190508181036000830152612f698161297e565b9050919050565b60006020820190508181036000830152612f89816129c4565b9050919050565b60006020820190508181036000830152612fa9816129e7565b9050919050565b60006020820190508181036000830152612fc981612a0a565b9050919050565b60006020820190508181036000830152612fe981612a50565b9050919050565b6000602082019050818103600083015261300981612a96565b9050919050565b6000602082019050818103600083015261302981612aff565b9050919050565b60006020820190506130456000830184612b45565b92915050565b6000613055613066565b90506130618282613389565b919050565b6000604051905090565b600067ffffffffffffffff82111561308b5761308a6134e5565b5b602082029050602081019050919050565b600067ffffffffffffffff8211156130b7576130b66134e5565b5b6130c082613514565b9050602081019050919050565b6000819050602082019050919050565b60008190508160005260206000209050919050565b600081519050919050565b600081519050919050565b600081519050919050565b6000602082019050919050565b600082825260208201905092915050565b600082825260208201905092915050565b600082825260208201905092915050565b600081905092915050565b6000613169826132e7565b9150613174836132e7565b9250827fffffffffffffffffffffffffffffffffffffffffffffffffffffffffffffffff038211156131a9576131a8613458565b5b828201905092915050565b60006131bf826132e7565b91506131ca836132e7565b9250826131da576131d9613487565b5b828204905092915050565b60006131f0826132e7565b91506131fb836132e7565b9250817fffffffffffffffffffffffffffffffffffffffffffffffffffffffffffffffff048311821515161561323457613233613458565b5b828202905092915050565b600061324a826132e7565b9150613255836132e7565b92508282101561326857613267613458565b5b828203905092915050565b600061327e826132c7565b9050919050565b60008115159050919050565b6000819050919050565b60007fffffffff0000000000000000000000000000000000000000000000000000000082169050919050565b600073ffffffffffffffffffffffffffffffffffffffff82169050919050565b6000819050919050565b60006132fc82613303565b9050919050565b600061330e826132c7565b9050919050565b82818337600083830152505050565b60005b83811015613342578082015181840152602081019050613327565b83811115613351576000848401525b50505050565b6000600282049050600182168061336f57607f821691505b60208210811415613383576133826134b6565b5b50919050565b61339282613514565b810181811067ffffffffffffffff821117156133b1576133b06134e5565b5b80604052505050565b60006133c5826132e7565b91507fffffffffffffffffffffffffffffffffffffffffffffffffffffffffffffffff8214156133f8576133f7613458565b5b600182019050919050565b600061340e82613415565b9050919050565b600061342082613525565b9050919050565b6000613432826132e7565b915061343d836132e7565b92508261344d5761344c613487565b5b828206905092915050565b7f4e487b7100000000000000000000000000000000000000000000000000000000600052601160045260246000fd5b7f4e487b7100000000000000000000000000000000000000000000000000000000600052601260045260246000fd5b7f4e487b7100000000000000000000000000000000000000000000000000000000600052602260045260246000fd5b7f4e487b7100000000000000000000000000000000000000000000000000000000600052604160045260246000fd5b6000601f19601f8301169050919050565b60008160601b9050919050565b7f68747470733a2f2f6e6674707265766965772e30786465762e636f6465732f3f60008201527f636f64653d000000000000000000000000000000000000000000000000000000602082015250565b7f222c20226465736372697074696f6e223a20224120636f6c6c656374696f6e2060008201527f6f662063697479206e616d65732e222c2022696d616765223a2022646174613a60208201527f696d6167652f7376672b786d6c3b6261736536342c0000000000000000000000604082015250565b7f4552433732313a207472616e7366657220746f206e6f6e20455243373231526560008201527f63656976657220696d706c656d656e7465720000000000000000000000000000602082015250565b7f222c2022746f6b656e555249223a202200000000000000000000000000000000600082015250565b7f4552433732313a207472616e736665722066726f6d20696e636f72726563742060008201527f6f776e6572000000000000000000000000000000000000000000000000000000602082015250565b7f4552433732313a20746f6b656e20616c7265616479206d696e74656400000000600082015250565b7f7b2273656e646572223a20220000000000000000000000000000000000000000600082015250565b7f4552433732313a207472616e7366657220746f20746865207a65726f2061646460008201527f7265737300000000000000000000000000000000000000000000000000000000602082015250565b7f4552433732313a20617070726f766520746f2063616c6c657200000000000000600082015250565b7f4552433732313a206f70657261746f7220717565727920666f72206e6f6e657860008201527f697374656e7420746f6b656e0000000000000000000000000000000000000000602082015250565b7f4552433732313a20617070726f76652063616c6c6572206973206e6f74206f7760008201527f6e6572206e6f7220617070726f76656420666f7220616c6c0000000000000000602082015250565b7f4552433732313a2062616c616e636520717565727920666f7220746865207a6560008201527f726f206164647265737300000000000000000000000000000000000000000000602082015250565b7f4552433732313a206f776e657220717565727920666f72206e6f6e657869737460008201527f656e7420746f6b656e0000000000000000000000000000000000000000000000602082015250565b7f45524337323155524953746f726167653a2055524920736574206f66206e6f6e60008201527f6578697374656e7420746f6b656e000000000000000000000000000000000000602082015250565b7f227d000000000000000000000000000000000000000000000000000000000000600082015250565b7f4552433732313a206d696e7420746f20746865207a65726f2061646472657373600082015250565b7f45524337323155524953746f726167653a2055524920717565727920666f722060008201527f6e6f6e6578697374656e7420746f6b656e000000000000000000000000000000602082015250565b7f4552433732313a20617070726f76656420717565727920666f72206e6f6e657860008201527f697374656e7420746f6b656e0000000000000000000000000000000000000000602082015250565b7f4349545900000000000000000000000000000000000000000000000000000000600082015250565b7f4552433732314d657461646174613a2055524920717565727920666f72206e6f60008201527f6e6578697374656e7420746f6b656e0000000000000000000000000000000000602082015250565b7f7b226e616d65223a202200000000000000000000000000000000000000000000600082015250565b7f4552433732313a20617070726f76616c20746f2063757272656e74206f776e6560008201527f7200000000000000000000000000000000000000000000000000000000000000602082015250565b7f222c2022746f6b656e4964223a20220000000000000000000000000000000000600082015250565b7f646174613a6170706c69636174696f6e2f6a736f6e3b6261736536342c000000600082015250565b7f4552433732313a207472616e736665722063616c6c6572206973206e6f74206f60008201527f776e6572206e6f7220617070726f766564000000000000000000000000000000602082015250565b7f222c202272656365697665722061646472657373223a20220000000000000000600082015250565b613bc581613273565b8114613bd057600080fd5b50565b613bdc81613285565b8114613be757600080fd5b50565b613bf381613291565b8114613bfe57600080fd5b50565b613c0a8161329b565b8114613c1557600080fd5b50565b613c21816132e7565b8114613c2c57600080fd5b5056fe416e204e465420772f20494420257320686173206265656e206d696e74656420746f2025734142434445464748494a4b4c4d4e4f505152535455565758595a6162636465666768696a6b6c6d6e6f707172737475767778797a303132333435363738392b2fa2646970667358221220e74c9088ae6d91d5165a96e5eef53da3532208794e25948b41f0292f7022c8d064736f6c6343000804003360806040523480156200001157600080fd5b5060405162000f2438038062000f24833981810160405281019062000037919062000194565b600060018260026200004a919062000209565b6200005691906200026a565b90506001826200006791906200026a565b60018190555060005b81811015620000de5760006040516020016200008c90620001e7565b6040516020818303038152906040528051906020012090806001815401808255809150506001900390600052602060002001600090919091909150558080620000d590620002af565b91505062000070565b50600060015490505b8181101562000174576002600082815481106200012d577f4e487b7100000000000000000000000000000000000000000000000000000000600052603260045260246000fd5b9060005260206000200154908060018154018082558091505060019003906000526020600020016000909190919091505580806200016b90620002af565b915050620000e7565b5050506200036f565b6000815190506200018e8162000355565b92915050565b600060208284031215620001a757600080fd5b6000620001b7848285016200017d565b91505092915050565b6000620001cf600183620001fe565b9150620001dc826200032c565b600182019050919050565b6000620001f482620001c0565b9150819050919050565b600081905092915050565b60006200021682620002a5565b91506200022383620002a5565b9250817fffffffffffffffffffffffffffffffffffffffffffffffffffffffffffffffff04831182151516156200025f576200025e620002fd565b5b828202905092915050565b60006200027782620002a5565b91506200028483620002a5565b9250828210156200029a5762000299620002fd565b5b828203905092915050565b6000819050919050565b6000620002bc82620002a5565b91507fffffffffffffffffffffffffffffffffffffffffffffffffffffffffffffffff821415620002f257620002f1620002fd565b5b600182019050919050565b7f4e487b7100000000000000000000000000000000000000000000000000000000600052601160045260246000fd5b7f3000000000000000000000000000000000000000000000000000000000000000600082015250565b6200036081620002a5565b81146200036c57600080fd5b50565b610ba5806200037f6000396000f3fe608060405234801561001057600080fd5b50600436106100575760003560e01c80633bc5de301461005c578063ad2b30371461007a578063d455a79d14610098578063d4a2498d146100c8578063f0ba8440146100e4575b600080fd5b610064610114565b604051610071919061075e565b60405180910390f35b61008261016c565b60405161008f919061075e565b60405180910390f35b6100b260048036038101906100ad91906105f3565b6101c4565b6040516100bf9190610780565b60405180910390f35b6100e260048036038101906100dd91906105b2565b6101e8565b005b6100fe60048036038101906100f991906105f3565b610335565b60405161010b9190610780565b60405180910390f35b6060600080548060200260200160405190810160405280929190818152602001828054801561016257602002820191906000526020600020905b81548152602001906001019080831161014e575b5050505050905090565b606060028054806020026020016040519081016040528092919081815260200182805480156101ba57602002820191906000526020600020905b8154815260200190600101908083116101a6575b5050505050905090565b600281815481106101d457600080fd5b906000526020600020016000915090505481565b60008054905060015410610231576040517f08c379a00000000000000000000000000000000000000000000000000000000081526004016102289061079b565b60405180910390fd5b6000816040516020016102449190610747565b60405160208183030381529060405280519060200120905080600060015481548110610299577f4e487b7100000000000000000000000000000000000000000000000000000000600052603260045260246000fd5b906000526020600020018190555080600260016002805490506102bc9190610952565b6001546102c99190610952565b81548110610300577f4e487b7100000000000000000000000000000000000000000000000000000000600052603260045260246000fd5b9060005260206000200181905550610319600154610359565b6001600081548092919061032c90610a0d565b91905055505050565b6000818154811061034557600080fd5b906000526020600020016000915090505481565b60008190506000805b600083146104a057610373836104a6565b915061037e836104c8565b156103935761038c826104f1565b905061039f565b61039c82610513565b90505b600083815481106103d9577f4e487b7100000000000000000000000000000000000000000000000000000000600052603260045260246000fd5b90600052602060002001546000828154811061041e577f4e487b7100000000000000000000000000000000000000000000000000000000600052603260045260246000fd5b906000526020600020015460405160200161043a92919061071b565b604051602081830303815290604052805190602001206000838154811061048a577f4e487b7100000000000000000000000000000000000000000000000000000000600052603260045260246000fd5b9060005260206000200181905550819250610362565b50505050565b600060026001836104b79190610952565b6104c191906108c7565b9050919050565b6000806002836104d89190610a60565b14156104e757600190506104ec565b600090505b919050565b6000600182600261050291906108f8565b61050c9190610871565b9050919050565b6000600282600261052491906108f8565b61052e9190610871565b9050919050565b6000610548610543846107e0565b6107bb565b90508281526020810184848401111561056057600080fd5b61056b84828561099a565b509392505050565b600082601f83011261058457600080fd5b8135610594848260208601610535565b91505092915050565b6000813590506105ac81610b58565b92915050565b6000602082840312156105c457600080fd5b600082013567ffffffffffffffff8111156105de57600080fd5b6105ea84828501610573565b91505092915050565b60006020828403121561060557600080fd5b60006106138482850161059d565b91505092915050565b60006106288383610692565b60208301905092915050565b600061063f82610821565b6106498185610844565b935061065483610811565b8060005b8381101561068557815161066c888261061c565b975061067783610837565b925050600181019050610658565b5085935050505092915050565b61069b81610986565b82525050565b6106aa81610986565b82525050565b6106c16106bc82610986565b610a56565b82525050565b60006106d28261082c565b6106dc8185610866565b93506106ec8185602086016109a9565b80840191505092915050565b6000610705601f83610855565b915061071082610b2f565b602082019050919050565b600061072782856106b0565b60208201915061073782846106b0565b6020820191508190509392505050565b600061075382846106c7565b915081905092915050565b600060208201905081810360008301526107788184610634565b905092915050565b600060208201905061079560008301846106a1565b92915050565b600060208201905081810360008301526107b4816106f8565b9050919050565b60006107c56107d6565b90506107d182826109dc565b919050565b6000604051905090565b600067ffffffffffffffff8211156107fb576107fa610aef565b5b61080482610b1e565b9050602081019050919050565b6000819050602082019050919050565b600081519050919050565b600081519050919050565b6000602082019050919050565b600082825260208201905092915050565b600082825260208201905092915050565b600081905092915050565b600061087c82610990565b915061088783610990565b9250827fffffffffffffffffffffffffffffffffffffffffffffffffffffffffffffffff038211156108bc576108bb610a91565b5b828201905092915050565b60006108d282610990565b91506108dd83610990565b9250826108ed576108ec610ac0565b5b828204905092915050565b600061090382610990565b915061090e83610990565b9250817fffffffffffffffffffffffffffffffffffffffffffffffffffffffffffffffff048311821515161561094757610946610a91565b5b828202905092915050565b600061095d82610990565b915061096883610990565b92508282101561097b5761097a610a91565b5b828203905092915050565b6000819050919050565b6000819050919050565b82818337600083830152505050565b60005b838110156109c75780820151818401526020810190506109ac565b838111156109d6576000848401525b50505050565b6109e582610b1e565b810181811067ffffffffffffffff82111715610a0457610a03610aef565b5b80604052505050565b6000610a1882610990565b91507fffffffffffffffffffffffffffffffffffffffffffffffffffffffffffffffff821415610a4b57610a4a610a91565b5b600182019050919050565b6000819050919050565b6000610a6b82610990565b9150610a7683610990565b925082610a8657610a85610ac0565b5b828206905092915050565b7f4e487b7100000000000000000000000000000000000000000000000000000000600052601160045260246000fd5b7f4e487b7100000000000000000000000000000000000000000000000000000000600052601260045260246000fd5b7f4e487b7100000000000000000000000000000000000000000000000000000000600052604160045260246000fd5b6000601f19601f8301169050919050565b7f546865204d65726b6c65205472656520697320616c72656164792066756c6c00600082015250565b610b6181610990565b8114610b6c57600080fd5b5056fea264697066735822122081b5cf663c5b0978b6956e54087784f9425a57c48f8ac2e918e8863c8e561f1664736f6c634300080400333c7376672077696474683d2233353022206865696768743d22333530222076696577426f783d2230203020333530203335302220786d6c6e733d22687474703a2f2f7777772e77332e6f72672f323030302f737667223e3c646566733e3c6c696e6561724772616469656e742069643d2261222078313d2230222079313d2230222078323d22323730222079323d2232373022206772616469656e74556e6974733d227573657253706163654f6e557365223e3c73746f702073746f702d636f6c6f723d2223386235636636222f3e3c73746f70206f66667365743d2231222073746f702d636f6c6f723d2223336238326636222073746f702d6f7061636974793d222e3939222f3e3c2f6c696e6561724772616469656e743e3c2f646566733e3c726563742077696474683d223130302522206865696768743d2231303025222066696c6c3d2275726c28236129222f3e3c7465787420783d223530252220793d223530252220646f6d696e616e742d626173656c696e653d226d6964646c652220746578742d616e63686f723d226d6964646c6522207374796c653d2266696c6c3a236666663b666f6e742d66616d696c793a73657269663b666f6e742d73697a653a33307078223e",
  "linkReferences": {},
  "deployedLinkReferences": {}
}