{
  "_format": "hh-sol-artifact-1",
  "contractName": "CityNameNFT",
  "sourceName": "contracts/CityNameNFT.sol",
  "abi": [
    {
      "inputs": [
        {
          "internalType": "uint256",
          "name": "_totalNFts",
          "type": "uint256"
        }
      ],
      "stateMutability": "nonpayable",
      "type": "constructor"
    },
    {
      "anonymous": false,
      "inputs": [
        {
          "indexed": true,
          "internalType": "address",
          "name": "owner",
          "type": "address"
        },
        {
          "indexed": true,
          "internalType": "address",
          "name": "approved",
          "type": "address"
        },
        {
          "indexed": true,
          "internalType": "uint256",
          "name": "tokenId",
          "type": "uint256"
        }
      ],
      "name": "Approval",
      "type": "event"
    },
    {
      "anonymous": false,
      "inputs": [
        {
          "indexed": true,
          "internalType": "address",
          "name": "owner",
          "type": "address"
        },
        {
          "indexed": true,
          "internalType": "address",
          "name": "operator",
          "type": "address"
        },
        {
          "indexed": false,
          "internalType": "bool",
          "name": "approved",
          "type": "bool"
        }
      ],
      "name": "ApprovalForAll",
      "type": "event"
    },
    {
      "anonymous": false,
      "inputs": [
        {
          "indexed": false,
          "internalType": "address",
          "name": "sender",
          "type": "address"
        },
        {
          "indexed": false,
          "internalType": "uint256",
          "name": "tokenId",
          "type": "uint256"
        }
      ],
      "name": "NewCityNameNFTMinted",
      "type": "event"
    },
    {
      "anonymous": false,
      "inputs": [
        {
          "indexed": true,
          "internalType": "address",
          "name": "from",
          "type": "address"
        },
        {
          "indexed": true,
          "internalType": "address",
          "name": "to",
          "type": "address"
        },
        {
          "indexed": true,
          "internalType": "uint256",
          "name": "tokenId",
          "type": "uint256"
        }
      ],
      "name": "Transfer",
      "type": "event"
    },
    {
      "inputs": [
        {
          "internalType": "address",
          "name": "to",
          "type": "address"
        },
        {
          "internalType": "uint256",
          "name": "tokenId",
          "type": "uint256"
        }
      ],
      "name": "approve",
      "outputs": [],
      "stateMutability": "nonpayable",
      "type": "function"
    },
    {
      "inputs": [
        {
          "internalType": "address",
          "name": "owner",
          "type": "address"
        }
      ],
      "name": "balanceOf",
      "outputs": [
        {
          "internalType": "uint256",
          "name": "",
          "type": "uint256"
        }
      ],
      "stateMutability": "view",
      "type": "function"
    },
    {
      "inputs": [
        {
          "internalType": "uint256",
          "name": "tokenId",
          "type": "uint256"
        }
      ],
      "name": "getApproved",
      "outputs": [
        {
          "internalType": "address",
          "name": "",
          "type": "address"
        }
      ],
      "stateMutability": "view",
      "type": "function"
    },
    {
      "inputs": [],
      "name": "getMerkleTreeLeaves",
      "outputs": [
        {
          "internalType": "bytes32[]",
          "name": "",
          "type": "bytes32[]"
        }
      ],
      "stateMutability": "view",
      "type": "function"
    },
    {
      "inputs": [],
      "name": "getTotalNFTs",
      "outputs": [
        {
          "internalType": "uint256",
          "name": "",
          "type": "uint256"
        }
      ],
      "stateMutability": "view",
      "type": "function"
    },
    {
      "inputs": [],
      "name": "getTotalNFTsMinted",
      "outputs": [
        {
          "internalType": "uint256",
          "name": "",
          "type": "uint256"
        }
      ],
      "stateMutability": "view",
      "type": "function"
    },
    {
      "inputs": [
        {
          "internalType": "address",
          "name": "owner",
          "type": "address"
        },
        {
          "internalType": "address",
          "name": "operator",
          "type": "address"
        }
      ],
      "name": "isApprovedForAll",
      "outputs": [
        {
          "internalType": "bool",
          "name": "",
          "type": "bool"
        }
      ],
      "stateMutability": "view",
      "type": "function"
    },
    {
      "inputs": [
        {
          "internalType": "address",
          "name": "personAddress",
          "type": "address"
        }
      ],
      "name": "makeACityNFT",
      "outputs": [],
      "stateMutability": "nonpayable",
      "type": "function"
    },
    {
      "inputs": [],
      "name": "merkleTreeAddress",
      "outputs": [
        {
          "internalType": "contract MerkleTree",
          "name": "",
          "type": "address"
        }
      ],
      "stateMutability": "view",
      "type": "function"
    },
    {
      "inputs": [],
      "name": "name",
      "outputs": [
        {
          "internalType": "string",
          "name": "",
          "type": "string"
        }
      ],
      "stateMutability": "view",
      "type": "function"
    },
    {
      "inputs": [
        {
          "internalType": "uint256",
          "name": "tokenId",
          "type": "uint256"
        }
      ],
      "name": "ownerOf",
      "outputs": [
        {
          "internalType": "address",
          "name": "",
          "type": "address"
        }
      ],
      "stateMutability": "view",
      "type": "function"
    },
    {
      "inputs": [
        {
          "internalType": "uint256",
          "name": "tokenId",
          "type": "uint256"
        }
      ],
      "name": "pickRandomCity",
      "outputs": [
        {
          "internalType": "string",
          "name": "",
          "type": "string"
        }
      ],
      "stateMutability": "view",
      "type": "function"
    },
    {
      "inputs": [
        {
          "internalType": "address",
          "name": "from",
          "type": "address"
        },
        {
          "internalType": "address",
          "name": "to",
          "type": "address"
        },
        {
          "internalType": "uint256",
          "name": "tokenId",
          "type": "uint256"
        }
      ],
      "name": "safeTransferFrom",
      "outputs": [],
      "stateMutability": "nonpayable",
      "type": "function"
    },
    {
      "inputs": [
        {
          "internalType": "address",
          "name": "from",
          "type": "address"
        },
        {
          "internalType": "address",
          "name": "to",
          "type": "address"
        },
        {
          "internalType": "uint256",
          "name": "tokenId",
          "type": "uint256"
        },
        {
          "internalType": "bytes",
          "name": "_data",
          "type": "bytes"
        }
      ],
      "name": "safeTransferFrom",
      "outputs": [],
      "stateMutability": "nonpayable",
      "type": "function"
    },
    {
      "inputs": [
        {
          "internalType": "address",
          "name": "operator",
          "type": "address"
        },
        {
          "internalType": "bool",
          "name": "approved",
          "type": "bool"
        }
      ],
      "name": "setApprovalForAll",
      "outputs": [],
      "stateMutability": "nonpayable",
      "type": "function"
    },
    {
      "inputs": [
        {
          "internalType": "bytes4",
          "name": "interfaceId",
          "type": "bytes4"
        }
      ],
      "name": "supportsInterface",
      "outputs": [
        {
          "internalType": "bool",
          "name": "",
          "type": "bool"
        }
      ],
      "stateMutability": "view",
      "type": "function"
    },
    {
      "inputs": [],
      "name": "symbol",
      "outputs": [
        {
          "internalType": "string",
          "name": "",
          "type": "string"
        }
      ],
      "stateMutability": "view",
      "type": "function"
    },
    {
      "inputs": [
        {
          "internalType": "uint256",
          "name": "tokenId",
          "type": "uint256"
        }
      ],
      "name": "tokenURI",
      "outputs": [
        {
          "internalType": "string",
          "name": "",
          "type": "string"
        }
      ],
      "stateMutability": "view",
      "type": "function"
    },
    {
      "inputs": [],
      "name": "totalNFTs",
      "outputs": [
        {
          "internalType": "uint256",
          "name": "",
          "type": "uint256"
        }
      ],
      "stateMutability": "view",
      "type": "function"
    },
    {
      "inputs": [],
      "name": "totalNFTsMinted",
      "outputs": [
        {
          "internalType": "uint256",
          "name": "",
          "type": "uint256"
        }
      ],
      "stateMutability": "view",
      "type": "function"
    },
    {
      "inputs": [
        {
          "internalType": "address",
          "name": "from",
          "type": "address"
        },
        {
          "internalType": "address",
          "name": "to",
          "type": "address"
        },
        {
          "internalType": "uint256",
          "name": "tokenId",
          "type": "uint256"
        }
      ],
      "name": "transferFrom",
      "outputs": [],
      "stateMutability": "nonpayable",
      "type": "function"
    }
  ],
  "bytecode": "0x60806040526040518061020001604052806101cb8152602001620055576101cb9139600a90805190602001906200003892919062000476565b506040518060400160405280600d81526020017f3c2f746578743e3c2f7376673e00000000000000000000000000000000000000815250600b90805190602001906200008692919062000476565b506040518060c001604052806040518060400160405280600681526020017f486176616e61000000000000000000000000000000000000000000000000000081525081526020016040518060400160405280600881526020017f4e657720596f726b00000000000000000000000000000000000000000000000081525081526020016040518060400160405280600581526020017f546f6b796f00000000000000000000000000000000000000000000000000000081525081526020016040518060400160405280600581526020017f44656c686900000000000000000000000000000000000000000000000000000081525081526020016040518060400160405280600581526020017f506172697300000000000000000000000000000000000000000000000000000081525081526020016040518060400160405280600681526020017f4d61647269640000000000000000000000000000000000000000000000000000815250815250600c9060066200020492919062000507565b503480156200021257600080fd5b506040516200572238038062005722833981810160405281019062000238919062000620565b6040518060400160405280600781526020017f436974794e4654000000000000000000000000000000000000000000000000008152506040518060400160405280600481526020017f43495459000000000000000000000000000000000000000000000000000000008152508160009080519060200190620002bc92919062000476565b508060019080519060200190620002d592919062000476565b505050620003236040518060400160405280601181526020017f43697479204e465420636f6e7472616374000000000000000000000000000000815250620003aa60201b6200118f1760201c565b806009819055508060405162000339906200056e565b620003459190620006c2565b604051809103906000f08015801562000362573d6000803e3d6000fd5b50600d60006101000a81548173ffffffffffffffffffffffffffffffffffffffff021916908373ffffffffffffffffffffffffffffffffffffffff16021790555050620007cb565b6200044a81604051602401620003c191906200069e565b6040516020818303038152906040527f41304fac000000000000000000000000000000000000000000000000000000007bffffffffffffffffffffffffffffffffffffffffffffffffffffffff19166020820180517bffffffffffffffffffffffffffffffffffffffffffffffffffffffff83818316178352505050506200044d60201b60201c565b50565b60008151905060006a636f6e736f6c652e6c6f679050602083016000808483855afa5050505050565b82805462000484906200073b565b90600052602060002090601f016020900481019282620004a85760008555620004f4565b82601f10620004c357805160ff1916838001178555620004f4565b82800160010185558215620004f4579182015b82811115620004f3578251825591602001919060010190620004d6565b5b5090506200050391906200057c565b5090565b8280548282559060005260206000209081019282156200055b579160200282015b828111156200055a5782518290805190602001906200054992919062000476565b509160200191906001019062000528565b5b5090506200056a91906200059b565b5090565b610f24806200463383390190565b5b80821115620005975760008160009055506001016200057d565b5090565b5b80821115620005bf5760008181620005b59190620005c3565b506001016200059c565b5090565b508054620005d1906200073b565b6000825580601f10620005e5575062000606565b601f0160209004906000526020600020908101906200060591906200057c565b5b50565b6000815190506200061a81620007b1565b92915050565b6000602082840312156200063357600080fd5b6000620006438482850162000609565b91505092915050565b60006200065982620006df565b620006658185620006ea565b93506200067781856020860162000705565b6200068281620007a0565b840191505092915050565b6200069881620006fb565b82525050565b60006020820190508181036000830152620006ba81846200064c565b905092915050565b6000602082019050620006d960008301846200068d565b92915050565b600081519050919050565b600082825260208201905092915050565b6000819050919050565b60005b838110156200072557808201518184015260208101905062000708565b8381111562000735576000848401525b50505050565b600060028204905060018216806200075457607f821691505b602082108114156200076b576200076a62000771565b5b50919050565b7f4e487b7100000000000000000000000000000000000000000000000000000000600052602260045260246000fd5b6000601f19601f8301169050919050565b620007bc81620006fb565b8114620007c857600080fd5b50565b613e5880620007db6000396000f3fe608060405234801561001057600080fd5b50600436106101375760003560e01c80636686d357116100b8578063b4c3b8be1161007c578063b4c3b8be14610350578063b88d4fde1461036e578063c87b56dd1461038a578063c8d1a304146103ba578063cd0d20f5146103d6578063e985e9c5146103f457610137565b80636686d3571461029857806370a08231146102b657806395d89b41146102e6578063a22cb46514610304578063ae8f6c8b1461032057610137565b806323b872dd116100ff57806323b872dd146101f457806330bdb3511461021057806342842e0e1461022e5780634eb7e95f1461024a5780636352211e1461026857610137565b806301ffc9a71461013c57806306fdde031461016c578063081812fc1461018a578063095ea7b3146101ba5780630d0e96da146101d6575b600080fd5b61015660048036038101906101519190612673565b610424565b6040516101639190612edf565b60405180910390f35b610174610506565b6040516101819190612f15565b60405180910390f35b6101a4600480360381019061019f91906126c5565b610598565b6040516101b19190612e2d565b60405180910390f35b6101d460048036038101906101cf91906125f6565b61061d565b005b6101de610735565b6040516101eb9190613195565b60405180910390f35b61020e600480360381019061020991906124f0565b61073b565b005b61021861079b565b6040516102259190613195565b60405180910390f35b610248600480360381019061024391906124f0565b6107a5565b005b6102526107c5565b60405161025f9190613195565b60405180910390f35b610282600480360381019061027d91906126c5565b6107cb565b60405161028f9190612e2d565b60405180910390f35b6102a061087d565b6040516102ad9190612ebd565b60405180910390f35b6102d060048036038101906102cb919061248b565b610929565b6040516102dd9190613195565b60405180910390f35b6102ee6109e1565b6040516102fb9190612f15565b60405180910390f35b61031e600480360381019061031991906125ba565b610a73565b005b61033a600480360381019061033591906126c5565b610a89565b6040516103479190612f15565b60405180910390f35b610358610ba7565b6040516103659190613195565b60405180910390f35b6103886004803603810190610383919061253f565b610bb1565b005b6103a4600480360381019061039f91906126c5565b610c13565b6040516103b19190612f15565b60405180910390f35b6103d460048036038101906103cf919061248b565b610d65565b005b6103de6110d5565b6040516103eb9190612efa565b60405180910390f35b61040e600480360381019061040991906124b4565b6110fb565b60405161041b9190612edf565b60405180910390f35b60007f80ac58cd000000000000000000000000000000000000000000000000000000007bffffffffffffffffffffffffffffffffffffffffffffffffffffffff1916827bffffffffffffffffffffffffffffffffffffffffffffffffffffffff191614806104ef57507f5b5e139f000000000000000000000000000000000000000000000000000000007bffffffffffffffffffffffffffffffffffffffffffffffffffffffff1916827bffffffffffffffffffffffffffffffffffffffffffffffffffffffff1916145b806104ff57506104fe82611228565b5b9050919050565b606060008054610515906134bc565b80601f0160208091040260200160405190810160405280929190818152602001828054610541906134bc565b801561058e5780601f106105635761010080835404028352916020019161058e565b820191906000526020600020905b81548152906001019060200180831161057157829003601f168201915b5050505050905090565b60006105a382611292565b6105e2576040517f08c379a00000000000000000000000000000000000000000000000000000000081526004016105d990613115565b60405180910390fd5b6004600083815260200190815260200160002060009054906101000a900473ffffffffffffffffffffffffffffffffffffffff169050919050565b6000610628826107cb565b90508073ffffffffffffffffffffffffffffffffffffffff168373ffffffffffffffffffffffffffffffffffffffff161415610699576040517f08c379a000000000000000000000000000000000000000000000000000000000815260040161069090613155565b60405180910390fd5b8073ffffffffffffffffffffffffffffffffffffffff166106b86112fe565b73ffffffffffffffffffffffffffffffffffffffff1614806106e757506106e6816106e16112fe565b6110fb565b5b610726576040517f08c379a000000000000000000000000000000000000000000000000000000000815260040161071d90613055565b60405180910390fd5b6107308383611306565b505050565b60095481565b61074c6107466112fe565b826113bf565b61078b576040517f08c379a000000000000000000000000000000000000000000000000000000000815260040161078290613175565b60405180910390fd5b61079683838361149d565b505050565b6000600954905090565b6107c083838360405180602001604052806000815250610bb1565b505050565b60085481565b6000806002600084815260200190815260200160002060009054906101000a900473ffffffffffffffffffffffffffffffffffffffff169050600073ffffffffffffffffffffffffffffffffffffffff168173ffffffffffffffffffffffffffffffffffffffff161415610874576040517f08c379a000000000000000000000000000000000000000000000000000000000815260040161086b90613095565b60405180910390fd5b80915050919050565b6060600d60009054906101000a900473ffffffffffffffffffffffffffffffffffffffff1673ffffffffffffffffffffffffffffffffffffffff1663ad2b30376040518163ffffffff1660e01b815260040160006040518083038186803b1580156108e757600080fd5b505afa1580156108fb573d6000803e3d6000fd5b505050506040513d6000823e3d601f19601f820116820180604052508101906109249190612632565b905090565b60008073ffffffffffffffffffffffffffffffffffffffff168273ffffffffffffffffffffffffffffffffffffffff16141561099a576040517f08c379a000000000000000000000000000000000000000000000000000000000815260040161099190613075565b60405180910390fd5b600360008373ffffffffffffffffffffffffffffffffffffffff1673ffffffffffffffffffffffffffffffffffffffff168152602001908152602001600020549050919050565b6060600180546109f0906134bc565b80601f0160208091040260200160405190810160405280929190818152602001828054610a1c906134bc565b8015610a695780601f10610a3e57610100808354040283529160200191610a69565b820191906000526020600020905b815481529060010190602001808311610a4c57829003601f168201915b5050505050905090565b610a85610a7e6112fe565b8383611704565b5050565b60606000610abd610a9984611871565b604051602001610aa99190612da4565b604051602081830303815290604052611a1e565b9050600c8054905081610ad0919061358c565b9050600c8181548110610b0c577f4e487b7100000000000000000000000000000000000000000000000000000000600052603260045260246000fd5b906000526020600020018054610b21906134bc565b80601f0160208091040260200160405190810160405280929190818152602001828054610b4d906134bc565b8015610b9a5780601f10610b6f57610100808354040283529160200191610b9a565b820191906000526020600020905b815481529060010190602001808311610b7d57829003601f168201915b5050505050915050919050565b6000600854905090565b610bc2610bbc6112fe565b836113bf565b610c01576040517f08c379a0000000000000000000000000000000000000000000000000000000008152600401610bf890613175565b60405180910390fd5b610c0d84848484611a51565b50505050565b6060610c1e82611292565b610c5d576040517f08c379a0000000000000000000000000000000000000000000000000000000008152600401610c54906130f5565b60405180910390fd5b6000600660008481526020019081526020016000208054610c7d906134bc565b80601f0160208091040260200160405190810160405280929190818152602001828054610ca9906134bc565b8015610cf65780601f10610ccb57610100808354040283529160200191610cf6565b820191906000526020600020905b815481529060010190602001808311610cd957829003601f168201915b505050505090506000610d07611aad565b9050600081511415610d1d578192505050610d60565b600082511115610d52578082604051602001610d3a929190612cb0565b60405160208183030381529060405292505050610d60565b610d5b84611ac4565b925050505b919050565b60095460085410610dab576040517f08c379a0000000000000000000000000000000000000000000000000000000008152600401610da290613015565b60405180910390fd5b6000610db76007611b6b565b90506000610dc482610a89565b90506000600a82600b604051602001610ddf93929190612cd4565b6040516020818303038152906040529050610e2e6040518060400160405280601581526020017f0a2d2d2d2d2d2d2d2d2d2d2d2d2d2d2d2d2d2d2d2d000000000000000000000081525061118f565b610e378161118f565b610e756040518060400160405280601581526020017f2d2d2d2d2d2d2d2d2d2d2d2d2d2d2d2d2d2d2d2d0a000000000000000000000081525061118f565b6000610ea983610e8484611b79565b604051602001610e95929190612dc6565b604051602081830303815290604052611b79565b9050600081604051602001610ebe9190612e0b565b6040516020818303038152906040529050610f0d6040518060400160405280601581526020017f0a2d2d2d2d2d2d2d2d2d2d2d2d2d2d2d2d2d2d2d2d000000000000000000000081525061118f565b610f3581604051602001610f219190612d05565b60405160208183030381529060405261118f565b610f736040518060400160405280601581526020017f2d2d2d2d2d2d2d2d2d2d2d2d2d2d2d2d2d2d2d2d0a000000000000000000000081525061118f565b610f7d8686611d03565b610f878582611d21565b6000610fbf3388610f9789611871565b85604051602001610fab9493929190612d27565b604051602081830303815290604052611b79565b9050600d60009054906101000a900473ffffffffffffffffffffffffffffffffffffffff1673ffffffffffffffffffffffffffffffffffffffff1663d4a2498d826040518263ffffffff1660e01b815260040161101c9190612f15565b600060405180830381600087803b15801561103657600080fd5b505af115801561104a573d6000803e3d6000fd5b505050506110586007611d95565b6008600081548092919061106b9061351f565b9190505550611093604051806060016040528060258152602001613dbe602591398789611dab565b7fe5b39de1a5a90c7ff6a5d3d2d7d5d2ea8afd1ffdf539826d95cd3e5590c3396533876040516110c4929190612e94565b60405180910390a150505050505050565b600d60009054906101000a900473ffffffffffffffffffffffffffffffffffffffff1681565b6000600560008473ffffffffffffffffffffffffffffffffffffffff1673ffffffffffffffffffffffffffffffffffffffff16815260200190815260200160002060008373ffffffffffffffffffffffffffffffffffffffff1673ffffffffffffffffffffffffffffffffffffffff16815260200190815260200160002060009054906101000a900460ff16905092915050565b611225816040516024016111a39190612f15565b6040516020818303038152906040527f41304fac000000000000000000000000000000000000000000000000000000007bffffffffffffffffffffffffffffffffffffffffffffffffffffffff19166020820180517bffffffffffffffffffffffffffffffffffffffffffffffffffffffff8381831617835250505050611e4a565b50565b60007f01ffc9a7000000000000000000000000000000000000000000000000000000007bffffffffffffffffffffffffffffffffffffffffffffffffffffffff1916827bffffffffffffffffffffffffffffffffffffffffffffffffffffffff1916149050919050565b60008073ffffffffffffffffffffffffffffffffffffffff166002600084815260200190815260200160002060009054906101000a900473ffffffffffffffffffffffffffffffffffffffff1673ffffffffffffffffffffffffffffffffffffffff1614159050919050565b600033905090565b816004600083815260200190815260200160002060006101000a81548173ffffffffffffffffffffffffffffffffffffffff021916908373ffffffffffffffffffffffffffffffffffffffff160217905550808273ffffffffffffffffffffffffffffffffffffffff16611379836107cb565b73ffffffffffffffffffffffffffffffffffffffff167f8c5be1e5ebec7d5bd14f71427d1e84f3dd0314c0f7b2291e5b200ac8c7c3b92560405160405180910390a45050565b60006113ca82611292565b611409576040517f08c379a000000000000000000000000000000000000000000000000000000000815260040161140090613035565b60405180910390fd5b6000611414836107cb565b90508073ffffffffffffffffffffffffffffffffffffffff168473ffffffffffffffffffffffffffffffffffffffff16148061148357508373ffffffffffffffffffffffffffffffffffffffff1661146b84610598565b73ffffffffffffffffffffffffffffffffffffffff16145b80611494575061149381856110fb565b5b91505092915050565b8273ffffffffffffffffffffffffffffffffffffffff166114bd826107cb565b73ffffffffffffffffffffffffffffffffffffffff1614611513576040517f08c379a000000000000000000000000000000000000000000000000000000000815260040161150a90612f95565b60405180910390fd5b600073ffffffffffffffffffffffffffffffffffffffff168273ffffffffffffffffffffffffffffffffffffffff161415611583576040517f08c379a000000000000000000000000000000000000000000000000000000000815260040161157a90612fd5565b60405180910390fd5b61158e838383611e73565b611599600082611306565b6001600360008573ffffffffffffffffffffffffffffffffffffffff1673ffffffffffffffffffffffffffffffffffffffff16815260200190815260200160002060008282546115e991906133a4565b925050819055506001600360008473ffffffffffffffffffffffffffffffffffffffff1673ffffffffffffffffffffffffffffffffffffffff168152602001908152602001600020600082825461164091906132c3565b92505081905550816002600083815260200190815260200160002060006101000a81548173ffffffffffffffffffffffffffffffffffffffff021916908373ffffffffffffffffffffffffffffffffffffffff160217905550808273ffffffffffffffffffffffffffffffffffffffff168473ffffffffffffffffffffffffffffffffffffffff167fddf252ad1be2c89b69c2b068fc378daa952ba7f163c4a11628f55a4df523b3ef60405160405180910390a46116ff838383611e78565b505050565b8173ffffffffffffffffffffffffffffffffffffffff168373ffffffffffffffffffffffffffffffffffffffff161415611773576040517f08c379a000000000000000000000000000000000000000000000000000000000815260040161176a90612ff5565b60405180910390fd5b80600560008573ffffffffffffffffffffffffffffffffffffffff1673ffffffffffffffffffffffffffffffffffffffff16815260200190815260200160002060008473ffffffffffffffffffffffffffffffffffffffff1673ffffffffffffffffffffffffffffffffffffffff16815260200190815260200160002060006101000a81548160ff0219169083151502179055508173ffffffffffffffffffffffffffffffffffffffff168373ffffffffffffffffffffffffffffffffffffffff167f17307eab39ab6107e8899845ad3d59bd9653f200f220920489ca2b5937696c31836040516118649190612edf565b60405180910390a3505050565b606060008214156118b9576040518060400160405280600181526020017f30000000000000000000000000000000000000000000000000000000000000008152509050611a19565b600082905060005b600082146118eb5780806118d49061351f565b915050600a826118e49190613319565b91506118c1565b60008167ffffffffffffffff81111561192d577f4e487b7100000000000000000000000000000000000000000000000000000000600052604160045260246000fd5b6040519080825280601f01601f19166020018201604052801561195f5781602001600182028036833780820191505090505b5090505b60008514611a125760018261197891906133a4565b9150600a85611987919061358c565b603061199391906132c3565b60f81b8183815181106119cf577f4e487b7100000000000000000000000000000000000000000000000000000000600052603260045260246000fd5b60200101907effffffffffffffffffffffffffffffffffffffffffffffffffffffffffffff1916908160001a905350600a85611a0b9190613319565b9450611963565b8093505050505b919050565b600081604051602001611a319190612c99565b6040516020818303038152906040528051906020012060001c9050919050565b611a5c84848461149d565b611a6884848484611e7d565b611aa7576040517f08c379a0000000000000000000000000000000000000000000000000000000008152600401611a9e90612f75565b60405180910390fd5b50505050565b606060405180602001604052806000815250905090565b6060611acf82611292565b611b0e576040517f08c379a0000000000000000000000000000000000000000000000000000000008152600401611b0590613135565b60405180910390fd5b6000611b18611aad565b90506000815111611b385760405180602001604052806000815250611b63565b80611b4284611871565b604051602001611b53929190612cb0565b6040516020818303038152906040525b915050919050565b600081600001549050919050565b6060600082511415611b9c57604051806020016040528060008152509050611cfe565b6000604051806060016040528060408152602001613de36040913990506000600360028551611bcb91906132c3565b611bd59190613319565b6004611be1919061334a565b67ffffffffffffffff811115611c20577f4e487b7100000000000000000000000000000000000000000000000000000000600052604160045260246000fd5b6040519080825280601f01601f191660200182016040528015611c525781602001600182028036833780820191505090505b509050600182016020820185865187015b80821015611cbe576003820191508151603f8160121c168501518453600184019350603f81600c1c168501518453600184019350603f8160061c168501518453600184019350603f8116850151845360018401935050611c63565b5050600386510660018114611cda5760028114611ced57611cf5565b603d6001830353603d6002830353611cf5565b603d60018303535b50505080925050505b919050565b611d1d828260405180602001604052806000815250612014565b5050565b611d2a82611292565b611d69576040517f08c379a0000000000000000000000000000000000000000000000000000000008152600401611d60906130b5565b60405180910390fd5b80600660008481526020019081526020016000209080519060200190611d9092919061226c565b505050565b6001816000016000828254019250508190555050565b611e45838383604051602401611dc393929190612f37565b6040516020818303038152906040527fe3849f79000000000000000000000000000000000000000000000000000000007bffffffffffffffffffffffffffffffffffffffffffffffffffffffff19166020820180517bffffffffffffffffffffffffffffffffffffffffffffffffffffffff8381831617835250505050611e4a565b505050565b60008151905060006a636f6e736f6c652e6c6f679050602083016000808483855afa5050505050565b505050565b505050565b6000611e9e8473ffffffffffffffffffffffffffffffffffffffff1661206f565b15612007578373ffffffffffffffffffffffffffffffffffffffff1663150b7a02611ec76112fe565b8786866040518563ffffffff1660e01b8152600401611ee99493929190612e48565b602060405180830381600087803b158015611f0357600080fd5b505af1925050508015611f3457506040513d601f19601f82011682018060405250810190611f31919061269c565b60015b611fb7573d8060008114611f64576040519150601f19603f3d011682016040523d82523d6000602084013e611f69565b606091505b50600081511415611faf576040517f08c379a0000000000000000000000000000000000000000000000000000000008152600401611fa690612f75565b60405180910390fd5b805181602001fd5b63150b7a0260e01b7bffffffffffffffffffffffffffffffffffffffffffffffffffffffff1916817bffffffffffffffffffffffffffffffffffffffffffffffffffffffff19161491505061200c565b600190505b949350505050565b61201e8383612092565b61202b6000848484611e7d565b61206a576040517f08c379a000000000000000000000000000000000000000000000000000000000815260040161206190612f75565b60405180910390fd5b505050565b6000808273ffffffffffffffffffffffffffffffffffffffff163b119050919050565b600073ffffffffffffffffffffffffffffffffffffffff168273ffffffffffffffffffffffffffffffffffffffff161415612102576040517f08c379a00000000000000000000000000000000000000000000000000000000081526004016120f9906130d5565b60405180910390fd5b61210b81611292565b1561214b576040517f08c379a000000000000000000000000000000000000000000000000000000000815260040161214290612fb5565b60405180910390fd5b61215760008383611e73565b6001600360008473ffffffffffffffffffffffffffffffffffffffff1673ffffffffffffffffffffffffffffffffffffffff16815260200190815260200160002060008282546121a791906132c3565b92505081905550816002600083815260200190815260200160002060006101000a81548173ffffffffffffffffffffffffffffffffffffffff021916908373ffffffffffffffffffffffffffffffffffffffff160217905550808273ffffffffffffffffffffffffffffffffffffffff16600073ffffffffffffffffffffffffffffffffffffffff167fddf252ad1be2c89b69c2b068fc378daa952ba7f163c4a11628f55a4df523b3ef60405160405180910390a461226860008383611e78565b5050565b828054612278906134bc565b90600052602060002090601f01602090048101928261229a57600085556122e1565b82601f106122b357805160ff19168380011785556122e1565b828001600101855582156122e1579182015b828111156122e05782518255916020019190600101906122c5565b5b5090506122ee91906122f2565b5090565b5b8082111561230b5760008160009055506001016122f3565b5090565b600061232261231d846131d5565b6131b0565b9050808382526020820190508285602086028201111561234157600080fd5b60005b858110156123715781612357888261240d565b845260208401935060208301925050600181019050612344565b5050509392505050565b600061238e61238984613201565b6131b0565b9050828152602081018484840111156123a657600080fd5b6123b184828561347a565b509392505050565b6000813590506123c881613d4a565b92915050565b600082601f8301126123df57600080fd5b81516123ef84826020860161230f565b91505092915050565b60008135905061240781613d61565b92915050565b60008151905061241c81613d78565b92915050565b60008135905061243181613d8f565b92915050565b60008151905061244681613d8f565b92915050565b600082601f83011261245d57600080fd5b813561246d84826020860161237b565b91505092915050565b60008135905061248581613da6565b92915050565b60006020828403121561249d57600080fd5b60006124ab848285016123b9565b91505092915050565b600080604083850312156124c757600080fd5b60006124d5858286016123b9565b92505060206124e6858286016123b9565b9150509250929050565b60008060006060848603121561250557600080fd5b6000612513868287016123b9565b9350506020612524868287016123b9565b925050604061253586828701612476565b9150509250925092565b6000806000806080858703121561255557600080fd5b6000612563878288016123b9565b9450506020612574878288016123b9565b935050604061258587828801612476565b925050606085013567ffffffffffffffff8111156125a257600080fd5b6125ae8782880161244c565b91505092959194509250565b600080604083850312156125cd57600080fd5b60006125db858286016123b9565b92505060206125ec858286016123f8565b9150509250929050565b6000806040838503121561260957600080fd5b6000612617858286016123b9565b925050602061262885828601612476565b9150509250929050565b60006020828403121561264457600080fd5b600082015167ffffffffffffffff81111561265e57600080fd5b61266a848285016123ce565b91505092915050565b60006020828403121561268557600080fd5b600061269384828501612422565b91505092915050565b6000602082840312156126ae57600080fd5b60006126bc84828501612437565b91505092915050565b6000602082840312156126d757600080fd5b60006126e584828501612476565b91505092915050565b60006126fa8383612799565b60208301905092915050565b61270f816133d8565b82525050565b612726612721826133d8565b613568565b82525050565b600061273782613257565b6127418185613285565b935061274c83613232565b8060005b8381101561277d57815161276488826126ee565b975061276f83613278565b925050600181019050612750565b5085935050505092915050565b612793816133ea565b82525050565b6127a2816133f6565b82525050565b60006127b382613262565b6127bd8185613296565b93506127cd818560208601613489565b6127d681613679565b840191505092915050565b6127ea81613456565b82525050565b60006127fb8261326d565b61280581856132a7565b9350612815818560208601613489565b61281e81613679565b840191505092915050565b60006128348261326d565b61283e81856132b8565b935061284e818560208601613489565b80840191505092915050565b60008154612867816134bc565b61287181866132b8565b9450600182166000811461288c576001811461289d576128d0565b60ff198316865281860193506128d0565b6128a685613242565b60005b838110156128c8578154818901526001820191506020810190506128a9565b838801955050505b50505092915050565b60006128e66025836132b8565b91506128f182613697565b602582019050919050565b60006129096055836132b8565b9150612914826136e6565b605582019050919050565b600061292c6032836132a7565b91506129378261375b565b604082019050919050565b600061294f6010836132b8565b915061295a826137aa565b601082019050919050565b60006129726025836132a7565b915061297d826137d3565b604082019050919050565b6000612995601c836132a7565b91506129a082613822565b602082019050919050565b60006129b8600c836132b8565b91506129c38261384b565b600c82019050919050565b60006129db6024836132a7565b91506129e682613874565b604082019050919050565b60006129fe6019836132a7565b9150612a09826138c3565b602082019050919050565b6000612a216014836132a7565b9150612a2c826138ec565b602082019050919050565b6000612a44602c836132a7565b9150612a4f82613915565b604082019050919050565b6000612a676038836132a7565b9150612a7282613964565b604082019050919050565b6000612a8a602a836132a7565b9150612a95826139b3565b604082019050919050565b6000612aad6029836132a7565b9150612ab882613a02565b604082019050919050565b6000612ad0602e836132a7565b9150612adb82613a51565b604082019050919050565b6000612af36002836132b8565b9150612afe82613aa0565b600282019050919050565b6000612b166020836132a7565b9150612b2182613ac9565b602082019050919050565b6000612b396031836132a7565b9150612b4482613af2565b604082019050919050565b6000612b5c602c836132a7565b9150612b6782613b41565b604082019050919050565b6000612b7f6004836132b8565b9150612b8a82613b90565b600482019050919050565b6000612ba2602f836132a7565b9150612bad82613bb9565b604082019050919050565b6000612bc5600a836132b8565b9150612bd082613c08565b600a82019050919050565b6000612be86021836132a7565b9150612bf382613c31565b604082019050919050565b6000612c0b600f836132b8565b9150612c1682613c80565b600f82019050919050565b6000612c2e601d836132b8565b9150612c3982613ca9565b601d82019050919050565b6000612c516031836132a7565b9150612c5c82613cd2565b604082019050919050565b6000612c746018836132b8565b9150612c7f82613d21565b601882019050919050565b612c938161344c565b82525050565b6000612ca58284612829565b915081905092915050565b6000612cbc8285612829565b9150612cc88284612829565b91508190509392505050565b6000612ce0828661285a565b9150612cec8285612829565b9150612cf8828461285a565b9150819050949350505050565b6000612d10826128d9565b9150612d1c8284612829565b915081905092915050565b6000612d32826129ab565b9150612d3e8287612715565b601482019150612d4d82612c67565b9150612d598286612715565b601482019150612d6882612bfe565b9150612d748285612829565b9150612d7f82612942565b9150612d8b8284612829565b9150612d9682612ae6565b915081905095945050505050565b6000612daf82612b72565b9150612dbb8284612829565b915081905092915050565b6000612dd182612bb8565b9150612ddd8285612829565b9150612de8826128fc565b9150612df48284612829565b9150612dff82612ae6565b91508190509392505050565b6000612e1682612c21565b9150612e228284612829565b915081905092915050565b6000602082019050612e426000830184612706565b92915050565b6000608082019050612e5d6000830187612706565b612e6a6020830186612706565b612e776040830185612c8a565b8181036060830152612e8981846127a8565b905095945050505050565b6000604082019050612ea96000830185612706565b612eb66020830184612c8a565b9392505050565b60006020820190508181036000830152612ed7818461272c565b905092915050565b6000602082019050612ef4600083018461278a565b92915050565b6000602082019050612f0f60008301846127e1565b92915050565b60006020820190508181036000830152612f2f81846127f0565b905092915050565b60006060820190508181036000830152612f5181866127f0565b9050612f606020830185612c8a565b612f6d6040830184612706565b949350505050565b60006020820190508181036000830152612f8e8161291f565b9050919050565b60006020820190508181036000830152612fae81612965565b9050919050565b60006020820190508181036000830152612fce81612988565b9050919050565b60006020820190508181036000830152612fee816129ce565b9050919050565b6000602082019050818103600083015261300e816129f1565b9050919050565b6000602082019050818103600083015261302e81612a14565b9050919050565b6000602082019050818103600083015261304e81612a37565b9050919050565b6000602082019050818103600083015261306e81612a5a565b9050919050565b6000602082019050818103600083015261308e81612a7d565b9050919050565b600060208201905081810360008301526130ae81612aa0565b9050919050565b600060208201905081810360008301526130ce81612ac3565b9050919050565b600060208201905081810360008301526130ee81612b09565b9050919050565b6000602082019050818103600083015261310e81612b2c565b9050919050565b6000602082019050818103600083015261312e81612b4f565b9050919050565b6000602082019050818103600083015261314e81612b95565b9050919050565b6000602082019050818103600083015261316e81612bdb565b9050919050565b6000602082019050818103600083015261318e81612c44565b9050919050565b60006020820190506131aa6000830184612c8a565b92915050565b60006131ba6131cb565b90506131c682826134ee565b919050565b6000604051905090565b600067ffffffffffffffff8211156131f0576131ef61364a565b5b602082029050602081019050919050565b600067ffffffffffffffff82111561321c5761321b61364a565b5b61322582613679565b9050602081019050919050565b6000819050602082019050919050565b60008190508160005260206000209050919050565b600081519050919050565b600081519050919050565b600081519050919050565b6000602082019050919050565b600082825260208201905092915050565b600082825260208201905092915050565b600082825260208201905092915050565b600081905092915050565b60006132ce8261344c565b91506132d98361344c565b9250827fffffffffffffffffffffffffffffffffffffffffffffffffffffffffffffffff0382111561330e5761330d6135bd565b5b828201905092915050565b60006133248261344c565b915061332f8361344c565b92508261333f5761333e6135ec565b5b828204905092915050565b60006133558261344c565b91506133608361344c565b9250817fffffffffffffffffffffffffffffffffffffffffffffffffffffffffffffffff0483118215151615613399576133986135bd565b5b828202905092915050565b60006133af8261344c565b91506133ba8361344c565b9250828210156133cd576133cc6135bd565b5b828203905092915050565b60006133e38261342c565b9050919050565b60008115159050919050565b6000819050919050565b60007fffffffff0000000000000000000000000000000000000000000000000000000082169050919050565b600073ffffffffffffffffffffffffffffffffffffffff82169050919050565b6000819050919050565b600061346182613468565b9050919050565b60006134738261342c565b9050919050565b82818337600083830152505050565b60005b838110156134a757808201518184015260208101905061348c565b838111156134b6576000848401525b50505050565b600060028204905060018216806134d457607f821691505b602082108114156134e8576134e761361b565b5b50919050565b6134f782613679565b810181811067ffffffffffffffff821117156135165761351561364a565b5b80604052505050565b600061352a8261344c565b91507fffffffffffffffffffffffffffffffffffffffffffffffffffffffffffffffff82141561355d5761355c6135bd565b5b600182019050919050565b60006135738261357a565b9050919050565b60006135858261368a565b9050919050565b60006135978261344c565b91506135a28361344c565b9250826135b2576135b16135ec565b5b828206905092915050565b7f4e487b7100000000000000000000000000000000000000000000000000000000600052601160045260246000fd5b7f4e487b7100000000000000000000000000000000000000000000000000000000600052601260045260246000fd5b7f4e487b7100000000000000000000000000000000000000000000000000000000600052602260045260246000fd5b7f4e487b7100000000000000000000000000000000000000000000000000000000600052604160045260246000fd5b6000601f19601f8301169050919050565b60008160601b9050919050565b7f68747470733a2f2f6e6674707265766965772e30786465762e636f6465732f3f60008201527f636f64653d000000000000000000000000000000000000000000000000000000602082015250565b7f222c20226465736372697074696f6e223a20224120636f6c6c656374696f6e2060008201527f6f662063697479206e616d65732e222c2022696d616765223a2022646174613a60208201527f696d6167652f7376672b786d6c3b6261736536342c0000000000000000000000604082015250565b7f4552433732313a207472616e7366657220746f206e6f6e20455243373231526560008201527f63656976657220696d706c656d656e7465720000000000000000000000000000602082015250565b7f222c2022746f6b656e555249223a202200000000000000000000000000000000600082015250565b7f4552433732313a207472616e736665722066726f6d20696e636f72726563742060008201527f6f776e6572000000000000000000000000000000000000000000000000000000602082015250565b7f4552433732313a20746f6b656e20616c7265616479206d696e74656400000000600082015250565b7f7b2273656e646572223a20220000000000000000000000000000000000000000600082015250565b7f4552433732313a207472616e7366657220746f20746865207a65726f2061646460008201527f7265737300000000000000000000000000000000000000000000000000000000602082015250565b7f4552433732313a20617070726f766520746f2063616c6c657200000000000000600082015250565b7f4e6f206d6f7265204e46547320746f206d696e74000000000000000000000000600082015250565b7f4552433732313a206f70657261746f7220717565727920666f72206e6f6e657860008201527f697374656e7420746f6b656e0000000000000000000000000000000000000000602082015250565b7f4552433732313a20617070726f76652063616c6c6572206973206e6f74206f7760008201527f6e6572206e6f7220617070726f76656420666f7220616c6c0000000000000000602082015250565b7f4552433732313a2062616c616e636520717565727920666f7220746865207a6560008201527f726f206164647265737300000000000000000000000000000000000000000000602082015250565b7f4552433732313a206f776e657220717565727920666f72206e6f6e657869737460008201527f656e7420746f6b656e0000000000000000000000000000000000000000000000602082015250565b7f45524337323155524953746f726167653a2055524920736574206f66206e6f6e60008201527f6578697374656e7420746f6b656e000000000000000000000000000000000000602082015250565b7f227d000000000000000000000000000000000000000000000000000000000000600082015250565b7f4552433732313a206d696e7420746f20746865207a65726f2061646472657373600082015250565b7f45524337323155524953746f726167653a2055524920717565727920666f722060008201527f6e6f6e6578697374656e7420746f6b656e000000000000000000000000000000602082015250565b7f4552433732313a20617070726f76656420717565727920666f72206e6f6e657860008201527f697374656e7420746f6b656e0000000000000000000000000000000000000000602082015250565b7f4349545900000000000000000000000000000000000000000000000000000000600082015250565b7f4552433732314d657461646174613a2055524920717565727920666f72206e6f60008201527f6e6578697374656e7420746f6b656e0000000000000000000000000000000000602082015250565b7f7b226e616d65223a202200000000000000000000000000000000000000000000600082015250565b7f4552433732313a20617070726f76616c20746f2063757272656e74206f776e6560008201527f7200000000000000000000000000000000000000000000000000000000000000602082015250565b7f222c2022746f6b656e4964223a20220000000000000000000000000000000000600082015250565b7f646174613a6170706c69636174696f6e2f6a736f6e3b6261736536342c000000600082015250565b7f4552433732313a207472616e736665722063616c6c6572206973206e6f74206f60008201527f776e6572206e6f7220617070726f766564000000000000000000000000000000602082015250565b7f222c202272656365697665722061646472657373223a20220000000000000000600082015250565b613d53816133d8565b8114613d5e57600080fd5b50565b613d6a816133ea565b8114613d7557600080fd5b50565b613d81816133f6565b8114613d8c57600080fd5b50565b613d9881613400565b8114613da357600080fd5b50565b613daf8161344c565b8114613dba57600080fd5b5056fe416e204e465420772f20494420257320686173206265656e206d696e74656420746f2025734142434445464748494a4b4c4d4e4f505152535455565758595a6162636465666768696a6b6c6d6e6f707172737475767778797a303132333435363738392b2fa26469706673582212202094cdfc80619e7b8ea142c6d3cf219d42bb604c06690d9d45a6f8f6915ae68f64736f6c6343000804003360806040523480156200001157600080fd5b5060405162000f2438038062000f24833981810160405281019062000037919062000194565b600060018260026200004a919062000209565b6200005691906200026a565b90506001826200006791906200026a565b60018190555060005b81811015620000de5760006040516020016200008c90620001e7565b6040516020818303038152906040528051906020012090806001815401808255809150506001900390600052602060002001600090919091909150558080620000d590620002af565b91505062000070565b50600060015490505b8181101562000174576002600082815481106200012d577f4e487b7100000000000000000000000000000000000000000000000000000000600052603260045260246000fd5b9060005260206000200154908060018154018082558091505060019003906000526020600020016000909190919091505580806200016b90620002af565b915050620000e7565b5050506200036f565b6000815190506200018e8162000355565b92915050565b600060208284031215620001a757600080fd5b6000620001b7848285016200017d565b91505092915050565b6000620001cf600183620001fe565b9150620001dc826200032c565b600182019050919050565b6000620001f482620001c0565b9150819050919050565b600081905092915050565b60006200021682620002a5565b91506200022383620002a5565b9250817fffffffffffffffffffffffffffffffffffffffffffffffffffffffffffffffff04831182151516156200025f576200025e620002fd565b5b828202905092915050565b60006200027782620002a5565b91506200028483620002a5565b9250828210156200029a5762000299620002fd565b5b828203905092915050565b6000819050919050565b6000620002bc82620002a5565b91507fffffffffffffffffffffffffffffffffffffffffffffffffffffffffffffffff821415620002f257620002f1620002fd565b5b600182019050919050565b7f4e487b7100000000000000000000000000000000000000000000000000000000600052601160045260246000fd5b7f3000000000000000000000000000000000000000000000000000000000000000600082015250565b6200036081620002a5565b81146200036c57600080fd5b50565b610ba5806200037f6000396000f3fe608060405234801561001057600080fd5b50600436106100575760003560e01c80633bc5de301461005c578063ad2b30371461007a578063d455a79d14610098578063d4a2498d146100c8578063f0ba8440146100e4575b600080fd5b610064610114565b604051610071919061075e565b60405180910390f35b61008261016c565b60405161008f919061075e565b60405180910390f35b6100b260048036038101906100ad91906105f3565b6101c4565b6040516100bf9190610780565b60405180910390f35b6100e260048036038101906100dd91906105b2565b6101e8565b005b6100fe60048036038101906100f991906105f3565b610335565b60405161010b9190610780565b60405180910390f35b6060600080548060200260200160405190810160405280929190818152602001828054801561016257602002820191906000526020600020905b81548152602001906001019080831161014e575b5050505050905090565b606060028054806020026020016040519081016040528092919081815260200182805480156101ba57602002820191906000526020600020905b8154815260200190600101908083116101a6575b5050505050905090565b600281815481106101d457600080fd5b906000526020600020016000915090505481565b60008054905060015410610231576040517f08c379a00000000000000000000000000000000000000000000000000000000081526004016102289061079b565b60405180910390fd5b6000816040516020016102449190610747565b60405160208183030381529060405280519060200120905080600060015481548110610299577f4e487b7100000000000000000000000000000000000000000000000000000000600052603260045260246000fd5b906000526020600020018190555080600260016002805490506102bc9190610952565b6001546102c99190610952565b81548110610300577f4e487b7100000000000000000000000000000000000000000000000000000000600052603260045260246000fd5b9060005260206000200181905550610319600154610359565b6001600081548092919061032c90610a0d565b91905055505050565b6000818154811061034557600080fd5b906000526020600020016000915090505481565b60008190506000805b600083146104a057610373836104a6565b915061037e836104c8565b156103935761038c826104f1565b905061039f565b61039c82610513565b90505b600083815481106103d9577f4e487b7100000000000000000000000000000000000000000000000000000000600052603260045260246000fd5b90600052602060002001546000828154811061041e577f4e487b7100000000000000000000000000000000000000000000000000000000600052603260045260246000fd5b906000526020600020015460405160200161043a92919061071b565b604051602081830303815290604052805190602001206000838154811061048a577f4e487b7100000000000000000000000000000000000000000000000000000000600052603260045260246000fd5b9060005260206000200181905550819250610362565b50505050565b600060026001836104b79190610952565b6104c191906108c7565b9050919050565b6000806002836104d89190610a60565b14156104e757600190506104ec565b600090505b919050565b6000600182600261050291906108f8565b61050c9190610871565b9050919050565b6000600282600261052491906108f8565b61052e9190610871565b9050919050565b6000610548610543846107e0565b6107bb565b90508281526020810184848401111561056057600080fd5b61056b84828561099a565b509392505050565b600082601f83011261058457600080fd5b8135610594848260208601610535565b91505092915050565b6000813590506105ac81610b58565b92915050565b6000602082840312156105c457600080fd5b600082013567ffffffffffffffff8111156105de57600080fd5b6105ea84828501610573565b91505092915050565b60006020828403121561060557600080fd5b60006106138482850161059d565b91505092915050565b60006106288383610692565b60208301905092915050565b600061063f82610821565b6106498185610844565b935061065483610811565b8060005b8381101561068557815161066c888261061c565b975061067783610837565b925050600181019050610658565b5085935050505092915050565b61069b81610986565b82525050565b6106aa81610986565b82525050565b6106c16106bc82610986565b610a56565b82525050565b60006106d28261082c565b6106dc8185610866565b93506106ec8185602086016109a9565b80840191505092915050565b6000610705601f83610855565b915061071082610b2f565b602082019050919050565b600061072782856106b0565b60208201915061073782846106b0565b6020820191508190509392505050565b600061075382846106c7565b915081905092915050565b600060208201905081810360008301526107788184610634565b905092915050565b600060208201905061079560008301846106a1565b92915050565b600060208201905081810360008301526107b4816106f8565b9050919050565b60006107c56107d6565b90506107d182826109dc565b919050565b6000604051905090565b600067ffffffffffffffff8211156107fb576107fa610aef565b5b61080482610b1e565b9050602081019050919050565b6000819050602082019050919050565b600081519050919050565b600081519050919050565b6000602082019050919050565b600082825260208201905092915050565b600082825260208201905092915050565b600081905092915050565b600061087c82610990565b915061088783610990565b9250827fffffffffffffffffffffffffffffffffffffffffffffffffffffffffffffffff038211156108bc576108bb610a91565b5b828201905092915050565b60006108d282610990565b91506108dd83610990565b9250826108ed576108ec610ac0565b5b828204905092915050565b600061090382610990565b915061090e83610990565b9250817fffffffffffffffffffffffffffffffffffffffffffffffffffffffffffffffff048311821515161561094757610946610a91565b5b828202905092915050565b600061095d82610990565b915061096883610990565b92508282101561097b5761097a610a91565b5b828203905092915050565b6000819050919050565b6000819050919050565b82818337600083830152505050565b60005b838110156109c75780820151818401526020810190506109ac565b838111156109d6576000848401525b50505050565b6109e582610b1e565b810181811067ffffffffffffffff82111715610a0457610a03610aef565b5b80604052505050565b6000610a1882610990565b91507fffffffffffffffffffffffffffffffffffffffffffffffffffffffffffffffff821415610a4b57610a4a610a91565b5b600182019050919050565b6000819050919050565b6000610a6b82610990565b9150610a7683610990565b925082610a8657610a85610ac0565b5b828206905092915050565b7f4e487b7100000000000000000000000000000000000000000000000000000000600052601160045260246000fd5b7f4e487b7100000000000000000000000000000000000000000000000000000000600052601260045260246000fd5b7f4e487b7100000000000000000000000000000000000000000000000000000000600052604160045260246000fd5b6000601f19601f8301169050919050565b7f546865204d65726b6c65205472656520697320616c72656164792066756c6c00600082015250565b610b6181610990565b8114610b6c57600080fd5b5056fea264697066735822122081b5cf663c5b0978b6956e54087784f9425a57c48f8ac2e918e8863c8e561f1664736f6c634300080400333c7376672077696474683d2233353022206865696768743d22333530222076696577426f783d2230203020333530203335302220786d6c6e733d22687474703a2f2f7777772e77332e6f72672f323030302f737667223e3c646566733e3c6c696e6561724772616469656e742069643d2261222078313d2230222079313d2230222078323d22323730222079323d2232373022206772616469656e74556e6974733d227573657253706163654f6e557365223e3c73746f702073746f702d636f6c6f723d2223386235636636222f3e3c73746f70206f66667365743d2231222073746f702d636f6c6f723d2223336238326636222073746f702d6f7061636974793d222e3939222f3e3c2f6c696e6561724772616469656e743e3c2f646566733e3c726563742077696474683d223130302522206865696768743d2231303025222066696c6c3d2275726c28236129222f3e3c7465787420783d223530252220793d223530252220646f6d696e616e742d626173656c696e653d226d6964646c652220746578742d616e63686f723d226d6964646c6522207374796c653d2266696c6c3a236666663b666f6e742d66616d696c793a73657269663b666f6e742d73697a653a33307078223e",
  "linkReferences": {},
  "deployedLinkReferences": {}
}